:020000040800F2
:100000001016002099010008451100084111000850
:1000100043110008410200081D1400080000000000
:1000200000000000000000000000000001010008C6
:1000300043020008000000004501000849110008C3
:10004000B3010008B3010008B3010008B3010008C0
:10005000B3010008B3010008B3010008B3010008B0
:10006000B3010008B3010008B3010008B3010008A0
:10007000B3010008B3010008B3010008B301000890
:10008000B3010008B3010008B3010008B301000880
:10009000B3010008B3010008B3010008B301000870
:1000A000B3010008C5110008B3010008B30100083E
:1000B000B3010008B3010008B3010008B301000850
:1000C000B3010008B3010008B3010008B301000840
:1000D000B301000811140008B3010008B3010008BF
:1000E000B3010008B3010008B3010008DFF80CD029
:1000F00000F094F800480047E915000810160020A9
:10010000224B19680868B0E8F00F80F30988BFF344
:100110006F8F4FF0000080F311884EF00D0E704786
:100120000000000006480068006880F3088862B696
:1001300061B6BFF34F8FBFF36F8F00DF00BF00BF0B
:1001400008ED00E0EFF30980BFF36F8F0F4B1A68E3
:1001500020E9F00F106008B54FF0500080F31188CF
:10016000BFF34F8FBFF36F8F02F0A2F84FF0000084
:1001700080F31188BDE8084019680868B0E8F00FFE
:1001800080F30988BFF36F8F704700BF34000020F1
:10019000EFF3058070470000064880470648004797
:1001A000FEE7FEE7FEE7FEE7FEE7FEE7FEE7FEE727
:1001B000FEE7FEE7C3110008ED000008D2B201E03F
:1001C00000F8012B491EFBD270470022F6E710B55C
:1001D00013460A4604461946FFF7F0FF204610BDB5
:1001E000421C10F8011B0029FBD1801A704730B562
:1001F0000B46014600202022012409E021FA02F5E5
:100200009D4205D303FA02F5491B04FA02F528447E
:10021000151EA2F10102F1DC30BD0000064C074DB5
:1002200006E0E06840F0010394E8070098471034C6
:10023000AC42F6D3FFF75EFF102D0008302D00080A
:10024000FEE7704710B590F821100024022903D072
:100250000421816301243DE001680A6822F00E0256
:100260000A6001680A6822F001020A601A4A0168FD
:10027000914201D1012121E0174A1432914201D16A
:1002800010211BE0144A2832914201D1891515E052
:10029000114A3C32914201D189140FE00E4A50328A
:1002A000914202D14FF4803108E00B4A643291420E
:1002B00002D14FF4801101E04FF08071064A083AF4
:1002C0005160012180F82110002180F82010416B3D
:1002D00001B18847204610BD080002402DE9F84FC3
:1002E000DFF8B891002409F1040A0AF1040B23464F
:1002F0000F270BF1040EC9E00125A5402A40AA42B0
:100300007DD1674ED1F804C0ACEB0608B44532D0BD
:1003100014DCBCF1030F3AD009DCBCF1000F2AD089
:10032000BCF1010F1CD0BCF1020F31D11DE0BCF1BA
:10033000110F17D0BCF1120F2AD119E0B8F5881FA0
:1003400019D006DCB8F5803F15D0B8F5801F1FD155
:1003500011E0B8F5001F0ED0B8F5041F18D10AE05F
:10036000CB6815E0CB681B1D12E0CB6808330FE0AB
:10037000CB680C330CE08B682BB1012B4FF00803DA
:1003800003D0456104E0042302E0056100E000239E
:10039000FF2A01D8064601E000F104064FEA840571
:1003A00001D9A5F12005D6F8008007FA05FC28EA56
:1003B0000C0803FA05F548EA0508C6F800804D6800
:1003C000ED0062D5374DAE6946F00106AE61AD690C
:1003D00024F0030605F001050095334D06EB050CEE
:1003E000DCF80850A607360F07FA06F825EA0805D4
:1003F000DFF8B880404503D14FF0000817E044E033
:10040000DFF8AC80404502D14FF001080FE0DFF883
:10041000A480404502D14FF0020808E0DFF8988040
:10042000404502D14FF0030801E04FF0040808FAFC
:1004300006F848EA0508CCF808804D68D9F800604D
:10044000ED034D4601D5164300E096432E604D68FE
:10045000DAF80060AD03554601D5164300E0964337
:100460002E604D68DBF80060ED025D4601D5164355
:1004700000E096432E604D68DEF80060AD027546E0
:1004800001D5164300E096432E60641C0D682A4691
:10049000E5407FF431AFBDE8F88F00000004014073
:1004A000000011100010024000000140000801404F
:1004B000000C014000100140001401400148806818
:1004C000704700002400002002488168027811442F
:1004D0008160704724000020074810B5016841F092
:1004E00010010160032000F08FF8002000F006F8F2
:1004F00000F03EF8002010BD0020024000B501468B
:1005000087B00022192000F05FF8192000F04EF8A3
:100510001348816941F400618161806905A900F493
:1005200000600690684600F017F900F045F90D49A3
:100530000D4AB0FBF1F10D48491E0260416040F2E6
:10054000E7320021C0E90321816000F00DFB10B10A
:10055000012007B000BD054800F034FBF9E70000BA
:100560000010024040420F00002C014028030020F0
:100570000C4808B5816941F001018161816901F090
:1005800001010091C16941F08051C161C06900F071
:10059000805000900448416821F0E06141F0007112
:1005A000416008BD0010024000000140002809DB46
:1005B00000F01F02012191404009800000F1E0207D
:1005C000C0F8001170470000F0B40E4B1B680C46D9
:1005D000C3F30223C3F10705042D00D90425191D17
:1005E000072901D2002300E0DB1E012606FA05F1EF
:1005F000491E214099409E40761E16403143F0BC72
:1006000000F022BF0CED00E0064900F00702086888
:100610004FF6FF03184040EA0220034A10430860E7
:10062000704700000CED00E00000FA052DE9F047EE
:100630000F46050061D0434E306800F00700B84215
:1006400009D2306820F0070038433060306800F08D
:100650000700B84251D128683B4C810712D54007AA
:1006600003D5606840F4E06060602878000703D537
:10067000606840F4605060606068A96820F0F00035
:10068000084360602878C00728D06868012810D027
:100690002168022810D0890700292EDA616821F02C
:1006A000030101436160FFF709FF804641F2883989
:1006B0000DE021688903EFE78901EDE7FFF7FEFE12
:1006C000A0EB0801494502D90320BDE8F087606826
:1006D000696800F00C00B0EB810FEFD1306800F0DA
:1006E0000700B8420BD9306820F00700384330606B
:1006F000306800F00700B84201D00120E5E7287813
:10070000400705D56068E96820F4E0600843606050
:100710002878000706D56068296920F4605040EA0F
:10072000C100606000F058F86168084AC1F3031125
:10073000515CC8400649086006480068FFF7DEFEC5
:100740000020C2E70020024000100240A82A000852
:1007500030000020280000200F2202600C4A53685D
:1007600003F003034360536803F0F00383605368AE
:1007700003F4E063C36052684FF4E06303EAD2021B
:1007800002610448006800F007000860704700003C
:1007900000100240002002400448054900684968F2
:1007A000044AC1F30221515CC84070473000002068
:1007B00000100240B82A000804480549006849684A
:1007C000044AC1F3C221515CC84070473000002088
:1007D00000100240B82A000812A185B00FC98DE8A8
:1007E0000F0014A0144A006804905168134801F0E7
:1007F0000C03042B10D0082B0ED1C1F38343C90383
:100800001DF803000AD5516804AAC1F34041515CA8
:100810000A4A5043B0FBF1F005B07047084948431D
:10082000FAE7000002030405060708090A0B0C0D8D
:100830000E0F1010010200000010024000127A009A
:1008400000093D002DE9F84F040070D02078C04D1C
:10085000C00749D06868C0F38100012807D06868E4
:10086000C0F38100022809D16868C00306D5286852
:10087000800339D560680028E7D035E06068B0F5BE
:10088000803F0BD010B1B0F5A02F11D0286820F414
:1008900080302860286820F4802002E0286840F436
:1008A00080302860606890B1FFF708FE06460AE0D5
:1008B000286840F480202860F0E700BFFFF7FEFDC5
:1008C000801B642873D828688003F7D50CE0FFF7F5
:1008D000F5FD064605E000BFFFF7F0FD801B64282C
:1008E000F0D828688003F7D420789A4E80074FF01C
:1008F00001094FF0000839D5686810F00C0F07D0D7
:100900006868C0F38100022809D16868C00306D472
:100910002868800714D52069012808D110E02069D3
:10092000B0B1C6F80090FFF7C9FD074605E00AE13F
:10093000FFF7C4FDC01B0228C4D828688007F7D57C
:100940002868616920F0F80040EAC10028600DE0E5
:10095000C6F80080FFF7B2FD074604E0FFF7AEFDE2
:10096000C01B022823D828688007F7D42078000706
:100970002CD57948A169D9B1C0F80090FFF79EFD48
:10098000074604E0FFF79AFDC01B02280FD8686AEB
:100990008007F7D571484FF4FA510068B0FBF1F0C9
:1009A000009000BF0098411E0091FAD20EE080E056
:1009B000C0F80080FFF782FD074604E0FFF77EFDE8
:1009C000C01B022875D8686A8007F7D420784007D2
:1009D00060D5E8690027C00008D4E86940F080507D
:1009E000E861E869012700F0805000905C480168E8
:1009F000C90513D40168834641F480710160FFF793
:100A00005DFD824606E000BFFFF758FDA0EB0A003F
:100A100064284ED8DBF80000C005F5D5E068012851
:100A20000AD008B1052813D0286A20F001002862F6
:100A3000286A20F0040002E0286A40F001002862E1
:100A4000E06841F2883B98B1FFF738FD82460BE041
:100A5000286A40F004002862EEE700BFFFF72EFD91
:100A6000A0EB0A0159455AD8286A8007F6D50CE050
:100A7000FFF724FD824605E0FFF720FDA0EB0A0109
:100A800059454CD8286A8007F6D41FB1E86920F090
:100A90008050E861E06988B36968C1F38101022987
:100AA00044D00228C6F8608004D0FFF707FD044652
:100AB00038E034E0FFF702FD074604E0FFF7FEFCF4
:100AC000C01B02282BD828688001F7D4206AB0F513
:100AD000803F05D16868A16820F400300843686051
:100AE000D4E908010843696821F474110843686077
:100AF000C6F86090FFF7E2FC044606E025E000BF80
:100B0000FFF7DCFC001B022809D828688001F7D514
:100B10001BE000BFFFF7D2FC001B022802D9032014
:100B2000BDE8F88F28688001F4D40EE00128F7D0E2
:100B30006868226A00F48031914204D1616A00F44D
:100B40007010884201D00120EAE70020E8E70000A9
:100B50000010024000004242800442423000002067
:100B6000007000407047704710B5040003D094F83F
:100B70003D0010B107E0012010BD002084F83C00CA
:100B8000204600F01EF8022084F83D00211D206858
:100B900000F01EFB012084F8460084F83E0084F833
:100BA0003F0084F8400084F8410084F8420084F853
:100BB000430084F8440084F8450084F83D00002098
:100BC00010BD704790F83D10012901D001207047F9
:100BD000022180F83D100168CA6842F00102CA6033
:100BE00000680B49884208D0B0F1804F05D0094910
:100BF000884202D00849884204D1816801F0070187
:100C0000062903D0016841F001010160002070470E
:100C1000002C01400004004000080040704770B5FF
:100C20000446006801694FF00005C943890715D4DF
:100C3000C168C943890711D4E91E016101202077E9
:100C4000206880698007204602D0FFF7E7FF04E0B4
:100C500000F098F8204600F096F8257720680169A2
:100C6000C943490717D4C168C943490713D46FF072
:100C700004010161022020772068806910F4407F20
:100C8000204602D0FFF7CAFF04E000F07BF82046C0
:100C900000F079F8257720680169C943090716D45F
:100CA000C168C943090712D46FF00801016104202B
:100CB00020772068C0698007204602D0FFF7AEFF8A
:100CC00004E000F05FF8204600F05DF8257720682A
:100CD0000169C943C90617D4C168C943C90613D4F9
:100CE0006FF010010161082020772068C06910F4BE
:100CF000407F204602D0FFF791FF04E000F042F869
:100D0000204600F040F8257720680169C943C907EB
:100D100008D1C168C943C90704D1891E01612046B1
:100D200000F032F820680169C943090609D4C16896
:100D3000C943090605D46FF0800101612046FFF721
:100D400011FF20680169C943490609D4C168C94334
:100D5000490605D46FF040010161204600F01EF8FD
:100D600020680169C94389060BD4C168C943890653
:100D700007D46FF0200101612046BDE87040FFF705
:100D8000F2BE70BD7047704700680349884201D1C8
:100D9000FFF79ABB70470000002C01407047704776
:100DA00070B5026804461068D168536910F00F0FDF
:100DB00052D003F0010501F490762E435FD0C207B4
:100DC00005D0CA0503D5E26B42F00102E263420797
:100DD00005D5DA0703D0E26B42F00202E263820734
:100DE00005D5DA0703D0E26B42F00402E2630207A2
:100DF00007D501F020022A4303D0E26B42F008023B
:100E0000E263E26B002A33D0800604D5880602D55F
:100E1000204600F029FA20684069E16BC0F3801099
:100E2000090700D428B3204600F010FA2068416971
:100E300049061AD5416921F040014161606BA0B1BA
:100E40002D494163606BFFF7FDF9002810D0606BFE
:100E5000416BBDE870400847830610D58B060ED560
:100E60002046BDE8704000F0FFB92046FFF797FF2D
:100E700070BD2046FFF793FF0020E06370BD0306BE
:100E80002BD50B0629D594F839002128F6D1A06876
:100E9000B0F5805F01D12069B0B1206A411C2162A8
:100EA000216800784860E08C401E0004000CE0845B
:100EB000E4D12068C16821F08001C1602068C16868
:100EC00041F04001C16070BD206A0088C0F3080095
:100ED0005060206A801C2062E5E74006F3D5480692
:100EE000F1D5D168204621F04001D160202184F85D
:100EF000391000F024F970BD3D12000870B50400EF
:100F000004D094F83900002510B106E0012070BD2E
:100F100084F83850204600F023F8242084F8390063
:100F20002068C16821F40051C160204600F0E2F958
:100F30002068016921F4904101612068416921F034
:100F40002A0141612068C16841F40051C160E56334
:100F5000202084F8390084F83A00002070BD000099
:100F600030B585B000240094019402940394006885
:100F7000184988422CD11848816941F48041816127
:100F8000816901F480410491816941F0040181612A
:100F90008069124D00F0040004904FF4007000903E
:100FA000022001900320039069462846FFF796F936
:100FB0002815CDE90004694628460294FFF78EF90A
:100FC000002211462520FFF7FFFA2520FFF7EEFA51
:100FD00005B030BD0038014000100240000801405B
:100FE00090F83A30202B22D1F9B1F2B190F8383094
:100FF000012B1CD081628285C2850021C16322221F
:1010000080F83A2080F838100168CA6842F480728B
:10101000CA6001684A6942F001024A610068C16819
:1010200041F02001C160002070470120704702207C
:101030007047000038B50020009001221049114887
:10104000FFF7CEFF0E4C641E6078722816D16946F9
:10105000606901F035FA6946606901F031FA694664
:10106000606901F02DFA0098002807D006494FF07A
:1010700080500860BFF34F8FBFF36F8F38BD000003
:10108000010000209400002004ED00E02DE9F84369
:10109000044690F839001F4616460D4620284CD1CC
:1010A000C5B1BEB194F83800012846D0012084F8BB
:1010B00038004FF00008C4F83C80212084F8390043
:1010C000FFF7FCF9A6848146E684A068B0F5805F4E
:1010D00003D004E00120BDE8F883206928B12E4642
:1010E0005FF0000584F838800EE00026FAE78021E2
:1010F000204600F05BF9A0B9AEB116F8010B2168EB
:101100004860E08C401EE084E08C4B464FF00002CB
:1011100000970028EBD14FF04001204600F046F93F
:1011200030B10320D7E735F8020BC0F30800E6E73B
:10113000202084F839000020CDE70220CBE770475B
:10114000FEE7FEE77047000010B5502080F31188DD
:10115000BFF34F8FBFF36F8F01F05CFB18B10449F1
:101160004FF080500860002080F3118810BD00000F
:1011700004ED00E030B58FB028216846FFF725F870
:1011800014210AA8FFF721F801210804CDE9001075
:101190000024029402250491CDE907504FF4E01099
:1011A00009906846FFF74EFB0F20CDE90A0568025B
:1011B000CDE90C4002210AA80E94FFF737FA0FB0D0
:1011C00030BD70470148FFF72ABD0000280300200A
:1011D000F0B50268164B174C174D4FF080479842F8
:1011E00005D0B84203D0A04201D0A84203D122F0DA
:1011F00070064A683243984205D0B84203D0A042F4
:1012000001D0A84203D122F44074CA6822434C6939
:1012100022F08002224302608A68C2620A68826207
:10122000984201D10969016301214161F0BD0000CB
:10123000002C0140000400400008004010B5406A46
:101240000021C185C184FFF7AAFD10BD0168CA68ED
:1012500022F49072CA6001684A6922F001024A6170
:10126000202180F83A10704710B590F83A102229E2
:1012700001D0022010BD82684FF480539A4201D100
:10128000016921B1816A9A421BD04AB10AE0026821
:10129000816A5268C2F308020A80816A891C08E0E8
:1012A000026972B10268526802F07F020A70816AB4
:1012B000491C8162C18D491E0904090CC18503D0F6
:1012C00016E002685268F1E70168CA6822F020025D
:1012D000CA600168CA6822F48072CA6001684A69FB
:1012E00022F001024A61202180F83A10FFF7A2FEA5
:1012F000002010BD70B5044600680169E26821F461
:101300004051114301612169A068084361690843A4
:101310002168CA6841F20C639A430243CA6020689C
:101320004169A26921F44071114341611E4920685D
:10133000884202D1FFF740FA01E0FFF72DFA00EBF7
:10134000C00101EB0012606864218000B2FBF0F381
:10135000B3FBF1F36FF018067343B2FBF0F5B2FB89
:10136000F0F605EB8305322303EB0515B5FBF1F52C
:10137000B6FBF1F605F0F00505EB0615B2FBF0F64D
:10138000B2FBF0F0B0FBF1F06FF01802504306EB47
:10139000800003EB0010B0FBF1F0216800F00F00BB
:1013A0002844886070BD0000003801402DE9F041FC
:1013B000984617460E460446069D1DE0681C1BD045
:1013C0002DB1FFF77BF8A0EB0800A84214D92068E4
:1013D000C16821F4D071C1602068416921F0010128
:1013E0004161202084F8390084F83A00002084F814
:1013F00038000320BDE8F0812068006836EA00006C
:1014000004D00020B842D9D00020F3E70120F9E74A
:101410000148FFF7C5BC000094000020FEE7000073
:101420000FB4084B10B504A902AA039800F02CF8D9
:10143000044602A9002000F0D1F8204610BC5DF857
:1014400014FB0000DD1500080907090E002804DB65
:1014500000F1E02080F80014704700F00F0000F168
:10146000E02080F8141D704702E008C8121F08C170
:10147000002AFAD170477047002001E001C1121F15
:10148000002AFBD1704700002DE9FF4F89B09B4631
:101490000446002506E025280BD05A460B999047B4
:1014A000641C6D1C20780028F5D10DB02846BDE8DD
:1014B000F08F0027B8460122474900E0074314F89F
:1014C000013F203B02FA03F00842F7D120782E2892
:1014D00019D114F8010F47F004072A280ED06FF035
:1014E0002F022078A0F1300109290CD808EB8801DF
:1014F00002EB410100EB0108641CF2E70A98641C4E
:1015000050F8048B0A9020780028CED0642808D0A8
:10151000692806D075281ED05A460B9990476D1C35
:1015200058E00A994FF00A0901C90A91002802DA25
:1015300040422D2102E0390504D52B218DF82010E1
:10154000012103E0F90704D02021F7E78A4608AE1D
:101550000DE00021FAE70A994FF00A0901C90A9142
:10156000F7E74946FEF743FE303106F8011D002833
:10157000F7D1ADEB060000F12009780701D44FF058
:101580000108C84502DDA8EB090000E00020804604
:10159000002706E008A85A46C05D0B9990476D1CCD
:1015A0007F1C5745F6DB04E030205A460B999047E4
:1015B0006D1CB8F10001A8F10108F5DC05E016F892
:1015C000010B5A460B9990476D1CB9F10001A9F126
:1015D0000109F4DC641C65E7092801000A68531C52
:1015E0000B601070704700001CB5FEF775FFFFF729
:1015F000C1FD3E48816941F020018161816901F0AE
:1016000020010091816941F00401816180693849BC
:1016100000F00400009037480C2201604FF416518E
:10162000416000218160C160C0E904128161C16133
:10163000FFF764FC012230492E48FFF7D1FC00215E
:10164000032000F0B7FE2C4C641E606108B12BA093
:1016500000E035A0A061FEF7C3FD82B2C823254893
:10166000A169FFF713FD24490120C91CCDE9000140
:101670000023802236A1384801F066F81E49022076
:10168000C91DCDE900010023802234A1354801F0B5
:101690005BF8194903200B31CDE9000100238022BA
:1016A00031A1334801F050F8134904200F31CDE93E
:1016B0000001002380222FA1304801F045F8606826
:1016C00038B1A06828B1E06818B1206908B12CA031
:1016D00000E034A0A061FEF783FD82B2C823054874
:1016E000A169FFF7D3FC00F0A5FDFEE70010024062
:1016F000003801409400002001000020436F756E07
:1017000074696E672073656D6170686F72652063C0
:101710007265617465642073756363657373667560
:101720006C790D0A00000000556E61626C652074D2
:101730006F20637265617420636F756E74696E6784
:101740002073656D6170686F72650D0A000000009E
:101750005461736B20310000B51E00085461736B37
:1017600020320000451F00085461736B20330000D5
:10177000D51F00085461736B2034000065200008F9
:10178000416C6C205461736B206372656174656495
:10179000207375636365737366756C6C792E0D0ABF
:1017A0000D0A0000416C6C205461736B2064696405
:1017B0006E277420637265617465642E0D0A0D0ACC
:1017C000000000002DE9F041184C0F4605466669FF
:1017D0002068001D00F06EFA38B9206890F82C10CF
:1017E00001208840A1698143A161681C07D137B1FC
:1017F0002168BDE8F0410E48091D00F0B1BA20682B
:101800003544B5424560216805D2A068BDE8F04185
:10181000091D00F08DBA6068091D00F089FA206B7F
:10182000854200D22563BDE8F0810000340000202D
:101830004C0400202DE9F041054600F09DFA2E4CA5
:101840002069401C206120682C4F10B1E06940B332
:101850002DE025602069012829D1002606EB8600AD
:1018600007EB800000F056FA761C072EF6D32348CB
:101870008C3000F04FFA2148A03000F04BFA1F489E
:10188000B43000F047FA1D48C83000F043FA1B4856
:10189000DC3000F03FFA19488C3060601430A060F2
:1018A00005E02068E96AC06A884200D82560E06ADD
:1018B000401CE062E96A0120A26988401043A061EF
:1018C00001EB810007EB8000291D00F049FA00F0D0
:1018D00073FAE06900280CD02068E96AC06A88427F
:1018E00007D207494FF080500860BFF34F8FBFF316
:1018F0006F8FBDE8F08100003400002070030020ED
:1019000004ED00E010B5044690F8510058B10128EC
:101910000CD002280FD0502080F31188BFF34F8FD6
:10192000BFF36F8FFEE7206B00F05AFA2046BDE848
:10193000104000F055BA10BD0F4840F6AC514207B8
:1019400005D0C01D0C4A20F00700821A891A0B4AE4
:1019500000230144C2E900030839103A21F00701CD
:1019600011604B600B600B1AC0E9001393604FF0DD
:1019700000405360D0607047600400208000002069
:10198000144E154CA6F1C8074FF08058DFF84C9064
:1019900012E000BF00F0F0F9F068C568281D00F003
:1019A00089F92069401E2061E068401EE06000F077
:1019B00003FA2846FFF7A6FFE0680028EAD1386856
:1019C0000128F9D9C9F80080BFF34F8FBFF36F8F9B
:1019D000F2E70000380400203400002004ED00E0AD
:1019E0000346009829B10260C0E90F31012100F0DF
:1019F00023BD0060F8E72DE9F0479A46DDE9098448
:101A000081466FF00303206B03EB82021044089DB4
:101A100020F00706700707D0502080F31188BFF32D
:101A20004F8FBFF36F8FFEE723180A5C83F83420D3
:101A30000A5C12B1401C1028F6D3002784F84370CA
:101A4000072D00D30625E562C4E91157201D00F0DB
:101A50006CF904F1180000F068F92461C5F1070081
:101A60006462A061E76484F850705246494630468B
:101A700000F00EF92060B8F1000F01D0C8F8004066
:101A8000BDE8F08730B5114900E011460A6882428E
:101A9000FBD34B685C18844203D14068184448600B
:101AA000084643681C18944209D1084C103C24682D
:101AB000A24209D052681A4442600A681268026061
:101AC000814200D0086030BD0460F9E7800000204A
:101AD00010B5044600F050F9A06B28B15FF0000487
:101AE00000F06AF9204610BD0124F9E70648416874
:101AF000096829B14168C968C968496801637047C4
:101B00004FF0FF31FAE70000340000200848406839
:101B1000401C4FF0500080F3118804D0BFF34F8F6A
:101B2000BFF36F8FFEE7BFF34F8FBFF36F8FFEE7FB
:101B3000880000202DE9F041044600F01DF994F9D9
:101B4000455004F1240609E0606A48B1304600F0CF
:101B50000FFF08B100F0FCFA6D1E6DB2002DF3DC32
:101B60004FF0FF3684F8456000F026F900F004F9E4
:101B700094F9445004F1100709E0206948B138464F
:101B800000F0F6FE08B100F0E3FA6D1E6DB2002D14
:101B9000F3DC84F84460BDE8F04100F00DB90000CA
:101BA0002DE9F0410546002700F07AFB314E306800
:101BB00008B9FFF7C1FEF06805424BD1C5B308353F
:101BC00068070ED005F00700C0F10800054468075B
:101BD00007D0502080F31188BFF34F8FBFF36F8F72
:101BE000FEE72DB37068854234D822481030014694
:101BF0000C6801E020460C466168A94202D22168C7
:101C00000029F7D131688C4224D00768216801602F
:101C100060680837411B10290FD96019420708D0A6
:101C2000502080F31188BFF34F8FBFF36F8FFEE713
:101C300010E041606560FFF725FF61687068401A39
:101C40007060B268904200D2B060F068014300203A
:101C5000C4E9000100F0C6FE780707D0502080F3E9
:101C60001188BFF34F8FBFF36F8FFEE73846BDE893
:101C7000F0810000700000200449086818B108686D
:101C8000826C521C82640868704700003400002097
:101C900010B5031F4FF080741C601B1F21F0010161
:101CA0001960191F024B0B60143940380A6010BDCF
:101CB0000D1B0008D0E9013201699A60D0E90123C7
:101CC0005A604A68824201D182684A6000220261F9
:101CD0000868401E08600868704710B5040006D008
:101CE00000F04AF8A46B00F067F8204610BD5020C1
:101CF00080F31188BFF34F8FBFF36F8FFEE70000B3
:101D0000034B036003F154000860802010607047AB
:101D1000D400002000F108014FF0FF32C0E90112A9
:101D2000C1600161002101607047002101617047BD
:101D300030B50B685A1C02D000F1080202E00269BB
:101D400004E02246546825689D42FAD953684B60E6
:101D500099608A60516008610168491C016030BD6A
:101D600042684A6093688B6093685960916008612B
:101D70000168491C01607047502080F31188BFF34F
:101D80004F8FBFF36F8F0A494868401C4860012895
:101D90000CD10848006810F0FF0F07D0502080F3E6
:101DA0001188BFF34F8FBFF36F8FFEE770470000BE
:101DB0008800002004ED00E00849486828B1401E72
:101DC000486001D180F311887047502080F311885A
:101DD000BFF34F8FBFF36F8FFEE700008800002036
:101DE00070B5002827D0144DA0F108046168E86898
:101DF000014207D1502080F31188BFF34F8FBFF30A
:101E00006F8FFEE722683AB1502080F31188BFF34C
:101E10004F8FBFF36F8FFEE78143616000F040FAA0
:101E200060686968084468602046FFF72BFEBDE8DB
:101E3000704000F0D7BD70BD700000204FF0E02072
:101E400000210161816105494FF47A720968B1FB93
:101E5000F2F1491E41610721016170473000002005
:101E600010B5FEF795F9114910280ED300F1E020C6
:101E700090F8F0030A78904207D2502080F311883E
:101E8000BFF34F8FBFF36F8FFEE709480068896883
:101E900000F4E060884207D9502080F31188BFF336
:101EA0004F8FBFF36F8FFEE710BD0000880000204A
:101EB0000CED00E04FF4FA751E4E4FF0FF37A6F11F
:101EC0001C0440F6B8385020FFF76AFE814660696E
:101ED000FFF703FFC2B218494846FFF7A1FA484688
:101EE000FEF77EF982B22B4649461448FFF7CEF83A
:101EF0003946606900F032FB2078114936F810202D
:101F00004846FFF78DFA4846FEF76AF982B22B463B
:101F100049460A48FFF7BAF82078022801D2401C47
:101F200000E0002020704846FFF75AFF404600F0CE
:101F3000E1F8C8E71C000020E02B00089400002016
:101F4000C02A00084FF4FA751E4E4FF0FF37A6F175
:101F50001C044FF47A785020FFF722FE8146606916
:101F6000FFF7BBFEC2B218494846FFF759FA484688
:101F7000FEF736F982B22B4649461448FFF786F839
:101F80003946606900F0EAFA2078114936F81020E5
:101F90004846FFF745FA4846FEF722F982B22B463B
:101FA00049460A48FFF772F82078022801D2401CFF
:101FB00000E0002020704846FFF712FF404600F086
:101FC00099F8C8E71C0000202C2C00089400002081
:101FD000082B00084FF4FA751E4E4FF0FF37A6F19C
:101FE0001C044FF4FA685020FFF7DAFD814660695F
:101FF000FFF773FEC2B218494846FFF711FA484688
:10200000FEF7EEF882B22B4649461448FFF73EF839
:102010003946606900F0A2FA2078114936F810209C
:102020004846FFF7FDF94846FEF7DAF882B22B463C
:1020300049460A48FFF72AF82078022801D2401CB6
:1020400000E0002020704846FFF7CAFE404600F03E
:1020500051F8C8E71C000020782C000894000020EC
:10206000502B00084FF4FA751E4E4FF0FF37A6F1C3
:102070001C0440F6B8385020FFF792FD8146606995
:10208000FFF72BFEC2B218494846FFF7C9F9484688
:10209000FEF7A6F882B22B4649461448FEF7F6FF33
:1020A0003946606900F05AFA2078114936F8102054
:1020B0004846FFF7B5F94846FEF792F882B22B463C
:1020C00049460A48FEF7E2FF2078022801D2401C68
:1020D00000E0002020704846FFF782FE404600F0F6
:1020E00009F8C8E71C000020C42C00089400002058
:1020F000982B000810B5020014D00F48806B38B13F
:10210000502080F31188BFF34F8FBFF36F8FFEE72E
:1021100000F0C6F800211046FFF754FB00F062FC07
:10212000002807D105494FF080500860BFF34F8F5A
:10213000BFF36F8F10BD00003400002004ED00E0FD
:1021400002498A6A02604969416070473400002090
:1021500001490120486270473400002010B50C4648
:1021600050B1094909681831FFF7E2FD2046BDE882
:1021700010400121FFF726BB502080F31188BFF3E8
:102180004F8FBFF36F8FFEE73400002070B504005F
:102190004BD0A26CA2B1606C884200D30146E06AC9
:1021A000884242D0012A40D1204D2A6894420FD162
:1021B000502080F31188BFF34F8FBFF36F8FFEE77E
:1021C000502080F31188BFF34F8FBFF36F8FFEE76E
:1021D000E162A269002A02DBC1F10701A161144E8C
:1021E00000EB8000616906EB800081421DD1201D5B
:1021F000FFF760FD012150B9E06A00EB800256F85C
:10220000222022B9AA6901FA00F08243AA61E06A99
:10221000AA6981401143A96100EB800006EB8000B0
:10222000211DBDE87040FFF79BBD70BD340000204C
:102230007003002010B586B00024039405AA04A9F9
:1022400003A80494FFF75CFDDDE903010094CDE9E8
:10225000011000230EA11048059A00F0A2FA0F49C0
:102260000028486311D0502080F31188BFF34F8FAE
:10227000BFF36F8F4FF0FF3008630120C8614C61DE
:1022800006B0BDE8104000F041B806B010BD000037
:1022900049444C450000000081190008340000202A
:1022A0000248816B491C81637047000034000020A4
:1022B0001448816B11B101214162704700214162D4
:1022C0008169B1FA81F1C1F11F0101EB81020E496F
:1022D00051F822306BB101EB820101F108034A6829
:1022E00052684A609A4201D152684A60D1680160DE
:1022F0007047502080F31188BFF34F8FBFF36F8F6B
:10230000FEE7000034000020700300201CB52649C1
:1023100008780190FF20087008788DF800009DF87B
:1023200000009DF8002000F0F000904207D05020FF
:1023300080F31188BFF34F8FBFF36F8FFEE79DF8D7
:1023400000001A4B00F0500018700720986005E05C
:102350009DF8002052008DF80020401E9DF80020BE
:102360001206F5D49860032807D0502080F3118816
:10237000BFF34F8FBFF36F8FFEE74FF4407098604D
:10238000019808700A48016841F470010160016811
:1023900041F070410160FFF751FD00205860FDF7EA
:1023A000C1FE00201CBD000000E400E08800002009
:1023B00020ED00E010B50C4648B184420FD9502002
:1023C00080F31188BFF34F8FBFF36F8FFEE750206C
:1023D00080F31188BFF34F8FBFF36F8FFEE70222A8
:1023E000002100F004F8002800D0846310BDF8B587
:1023F00017460E46050014D0DEB105FB06F0483046
:10240000FFF7CEFB04000AD0002084F8460004F158
:1024100048023B46314628460094FFF7E1FA204641
:10242000F8BD502080F31188BFF34F8FBFF36F8F3B
:10243000FEE70020E3E7000070B50D46040025D05C
:10244000FFF79AFCD4E90F20216802FB00116160BC
:102450000021A1632168A1600A46D4E90F01401E52
:1024600000FB0121E16021464FF0FF3001F8440FED
:10247000487004F110008DB1FFF74CFC04F124000A
:10248000FFF748FCFFF798FC012070BD502080F357
:102490001188BFF34F8FBFF36F8FFEE721690029CB
:1024A000F0D000F065FA0028ECD004494FF08050DD
:1024B0000860BFF34F8FBFF36F8FE3E704ED00E0D9
:1024C00070B50E46040009D0206C78B1502080F31E
:1024D0001188BFF34F8FBFF36F8FFEE7502080F35B
:1024E0001188BFF34F8FBFF36F8FFEE7206848B9A5
:1024F000606838B1502080F31188BFF34F8FBFF36D
:102500006F8FFEE7FFF7ACFC5020EFF3118580F3EF
:102510001188BFF34F8FBFF36F8FA16BE06B8842C1
:1025200018D994F94500491CA163411C04D0401CF2
:1025300084F8450001200EE0606A0028FAD004F11A
:10254000240000F015FA0028F4D0002EF2D001206B
:102550003060EFE7002085F3118870BD2DE9F3436B
:10256000002683B00400354609D0206C78B1502095
:1025700080F31188BFF34F8FBFF36F8FFEE75020BA
:1025800080F31188BFF34F8FBFF36F8FFEE700F02A
:1025900033F9DFF83C814FF000094FF0805748B91C
:1025A000049838B1502080F31188BFF34F8FBFF3E8
:1025B0006F8FFEE7FFF7E0FBA06BC8B1401EA06382
:1025C000206810B9FFF758FB6060206950B104F132
:1025D000100000F0CDF928B1C8F80070BFF34F8F9C
:1025E000BFF36F8FFFF7E8FB012005B0BDE8F08374
:1025F000049808B166B10FE03DB1502080F3118816
:10260000BFF34F8FBFF36F8FFEE7FFF7D5FB5DE0A2
:102610006846FFF795FD0126FFF7CEFBFFF740FE6A
:10262000FFF7AAFB94F94400401C01D184F84490C0
:1026300094F94500401C01D184F84590FFF7BCFB9C
:1026400004A9684600F046F80028204612D0FFF79B
:1026500071FA00F0C7F92046FFF73AFA0028A9D02E
:102660009DB3FFF789FB606A50B3206B0068C0F12F
:10267000070126E0FFF72CFAE0B1206838B9FFF730
:102680007BFB606800F02AF90546FFF795FB04F133
:1026900024000499FFF762FD2046FFF74BFA00F093
:1026A000A1F9002886D1C8F80070BFF34F8FBFF39F
:1026B0006F8F7FE72046FFF73DFA00F093F979E747
:1026C00000216068FFF762FD9FE7FFE700208CE7CD
:1026D00004ED00E02DE9F0410C46050011D0C4B135
:1026E000FFF74AFB174B5A696E682068911B471C1D
:1026F00017D02F689B6A9F4219D0964217D80124A1
:1027000010E0502080F31188BFF34F8FBFF36F8F1D
:10271000FEE7502080F31188BFF34F8FBFF36F8F18
:10272000FEE70024FFF748FB2046BDE8F081884221
:1027300005D9401A20602846FFF702FDF1E7002086
:102740002060DCE7340000202DE9FF5F8346DDE9EF
:102750000E87994616468A469000FFF721FA050033
:102760001CD05420FFF71CFA040014D0002025636D
:1027700084F85100CDE90240CDE900874B4632464E
:1027800051465846FFF737F92046FFF753F8012026
:1027900004B0BDE8F09F2846FFF722FB4FF0FF3062
:1027A000F6E7F0B585B0DDE90B640A9DA6B1DCB1B2
:1027B000542700972663022684F85160002604AF50
:1027C000CDE90246CDE90057FFF715F92046FFF79E
:1027D00031F8049805B0F0BD502080F31188BFF3A4
:1027E0004F8FBFF36F8FFEE7502080F31188BFF348
:1027F0004F8FBFF36F8FFEE70548C16919B1806B3A
:1028000018B1002070470120704702207047000077
:10281000340000202DE9F0412E4C0027A06B40B180
:10282000206A401C2062606A00B101273846BDE87A
:10283000F0816669761C666113D16068006838B102
:10284000502080F31188BFF34F8FBFF36F8FFEE7E7
:102850006068A1686160A060A06A401CA062FFF788
:1028600045F9206BDFF87080864209D36068006804
:1028700080B16068C068C568686886420DD2206310
:102880002068C06A00EB800158F821000128CAD9ED
:102890000127C8E74FF0FF30F1E7281DFFF70AFADC
:1028A000A86A18B105F11800FFF704FAE86A0121D7
:1028B000A26981401143A16100EB800108EB810016
:1028C000291DFFF74DFAE86A2168C96A8842CDD30D
:1028D0000127CBE7340000207003002070B504000E
:1028E0004FF0000038D0204DE16A2A68D26A914248
:1028F00033D2A069002804DB2868C06AC0F1070051
:10290000A0611A4E01EB8101606906EB81018842EA
:102910001ED1201DFFF7CEF9012150B9E06A00EB6E
:10292000800256F8222022B9AA6901FA00F08243F7
:10293000AA612868C06AE062AA6981401143A9615E
:1029400000EB800006EB8000211DFFF709FA02E092
:102950002868C06AE062012070BD616C2A68D26A92
:102960009142F8D370BD00003400002070030020B5
:102970002DE9F041C068C468ACB104F11800074605
:10298000FFF798F9154DA86B0126A0B139461448F8
:10299000FFF7E6F9E06A2968C96A88421CD9012074
:1029A0006E62BDE8F081502080F31188BFF34F8F35
:1029B000BFF36F8FFEE7201DFFF77CF9E16AAA697C
:1029C00006FA01F01043A86101EB81000449B43913
:1029D00001EB8000211DDBE70020E2E7340000204E
:1029E000240400202DE9F0472C4D00242746A86B35
:1029F00038B1FFF7C1F9A86B401EA863A86B40B1BE
:102A000046E0502080F31188BFF34F8FBFF36F8FE4
:102A1000FEE72969224E0120D1B3A6F1B409804610
:102A20003068E8B1F068C46804F11800FFF742F9B3
:102A3000201DFFF73FF9E06AAA6908FA00F1114387
:102A4000A96100EB800109EB8100211DFFF788F9E6
:102A5000E06A2968C96A8842E2D3C5F82480DFE7C2
:102A60000CB1FFF743F82C6A44B14646FFF7D2FE9B
:102A700000B16E62641EF9D100202862686A38B124
:102A80000849012738070860BFF34F8FBFF36F8FE6
:102A9000FFF792F93846BDE8F087000034000020C7
:102AA0002404002004ED00E000000000000000000D
:102AB00001020304060708090000000001020304E4
:102AC0004C656176696E67205461736B20310D0A25
:102AD0002044617461206163636573736564206978
:102AE000733A2025640D0A204E6F742072656C6560
:102AF0006173696E67207468652073656D617068C5
:102B00006F72650D0A0D0A004C656176696E67206B
:102B10005461736B20320D0A20446174612061633B
:102B20006365737365642069733A2025640D0A2018
:102B30004E6F742072656C656173696E672074688E
:102B4000652073656D6170686F72650D0A0D0A000E
:102B50004C656176696E67205461736B20330D0A92
:102B600020446174612061636365737365642069E7
:102B7000733A2025640D0A204E6F742072656C65CF
:102B80006173696E67207468652073656D61706834
:102B90006F72650D0A0D0A004C656176696E6720DB
:102BA0005461736B20340D0A2044617461206163A9
:102BB0006365737365642069733A2025640D0A2088
:102BC0004E6F742072656C656173696E67207468FE
:102BD000652073656D6170686F72650D0A0D0A007E
:102BE000456E7465726564207461736B20310D0AE3
:102BF0002041626F757420746F2061637175697212
:102C00006564207468652073656D6170686F7265B6
:102C10000D0A546F6B656E73206176616961626C39
:102C200065206172653A2025640D0A00456E746561
:102C3000726564207461736B20320D0A2041626FEB
:102C4000757420746F206163717569726564207496
:102C500068652073656D6170686F72650D0A546FE9
:102C60006B656E73206176616961626C652061726B
:102C7000653A2025640D0A00456E7465726564200E
:102C80007461736B20330D0A2041626F7574207478
:102C90006F20616371756972656420746865207363
:102CA000656D6170686F72650D0A546F6B656E7348
:102CB000206176616961626C65206172653A2025E8
:102CC000640D0A00456E7465726564207461736BEF
:102CD00020340D0A2041626F757420746F20616387
:102CE000717569726564207468652073656D6170C3
:102CF000686F72650D0A546F6B656E732061766143
:102D00006961626C65206172653A2025640D0A0074
:102D1000302D000800000020940000006814000816
:102D2000C42D0008940000207C15000078140008D1
:102D30000000000000000000000000000000000093
:102D40000000000000000000000000006F00DE0036
:102D50004D01000001000000100000000000000014
:102D60000024F4000000000000000000000000004B
:102D70000000000000000000000000000000000053
:102D80000000000000000000000000000000000043
:102D90000000000000000000000000000000000033
:102DA0000000000000000000000000000000000023
:102DB000000000000000000000000000AAAAAAAA6B
:042DC000000000000F
:04000005080000ED02
:00000001FF
