:020000040800F2
:100000004814002099010008AB0E0008A70E000854
:10001000A90E000839020008BD1000080000000009
:1000200000000000000000000000000001010008C6
:100030003B0200080000000045010008AD0E00086A
:10004000B3010008B3010008B3010008B3010008C0
:10005000B3010008B3010008B3010008B3010008B0
:10006000B3010008B3010008B3010008B3010008A0
:10007000B3010008B3010008B3010008B301000890
:10008000B3010008B3010008B3010008B301000880
:10009000B3010008B3010008B3010008B301000870
:1000A000B3010008290F0008B3010008B3010008DC
:1000B000B3010008B3010008B3010008B301000850
:1000C000B3010008B3010008B3010008B301000840
:1000D000B3010008B3010008B3010008B301000830
:1000E000B3010008B3010008B3010008DFF80CD029
:1000F00000F090F800480047FD1000084814002068
:10010000224B19680868B0E8F00F80F30988BFF344
:100110006F8F4FF0000080F311884EF00D0E704786
:100120000000000006480068006880F3088862B696
:1001300061B6BFF34F8FBFF36F8F00DF00BF00BF0B
:1001400008ED00E0EFF30980BFF36F8F0F4B1A68E3
:1001500020E9F00F106008B54FF0500080F31188CF
:10016000BFF34F8FBFF36F8F01F07CFD4FF00000A6
:1001700080F31188BDE8084019680868B0E8F00FFE
:1001800080F30988BFF36F8F704700BF180000200D
:10019000EFF3058070470000064880470648004797
:1001A000FEE7FEE7FEE7FEE7FEE7FEE7FEE7FEE727
:1001B000FEE7FEE7270F0008ED00000840EA010314
:1001C0009B0703D009E008C9121F08C0042AFAD20D
:1001D00003E011F8013B00F8013B521EF9D27047D1
:1001E000D2B201E000F8012B491EFBD27047002279
:1001F000F6E710B513460A4604461946FFF7F0FF26
:10020000204610BD421C10F8011B0029FBD1801AAA
:1002100070470000064C074D06E0E06840F001031F
:1002200094E8070098471034AC42F6D3FFF762FF1A
:10023000F025000810260008FEE7704770B5044658
:1002400000F0FEF80546601C02D004480078044423
:1002500000F0F6F8401BA042FAD370BD0800002061
:100260002DE9F84FDFF8B891002409F1040A0AF1EA
:10027000040B23460F270BF1040EC9E00125A5400E
:100280002A40AA427DD1674ED1F804C0ACEB0608E3
:10029000B44532D014DCBCF1030F3AD009DCBCF118
:1002A000000F2AD0BCF1010F1CD0BCF1020F31D1DC
:1002B0001DE0BCF1110F17D0BCF1120F2AD119E0CB
:1002C000B8F5881F19D006DCB8F5803F15D0B8F511
:1002D000801F1FD111E0B8F5001F0ED0B8F5041F24
:1002E00018D10AE0CB6815E0CB681B1D12E0CB6883
:1002F00008330FE0CB680C330CE08B682BB1012B7B
:100300004FF0080303D0456104E0042302E00561D7
:1003100000E00023FF2A01D8064601E000F10406B0
:100320004FEA840501D9A5F12005D6F8008007FA27
:1003300005FC28EA0C0803FA05F548EA0508C6F8A2
:1003400000804D68ED0062D5374DAE6946F001067C
:10035000AE61AD6924F0030605F001050095334D4B
:1003600006EB050CDCF80850A607360F07FA06F86E
:1003700025EA0805DFF8B880404503D14FF00008B2
:1003800017E044E0DFF8AC80404502D14FF00108AF
:100390000FE0DFF8A480404502D14FF0020808E0EA
:1003A000DFF89880404502D14FF0030801E04FF09C
:1003B000040808FA06F848EA0508CCF808804D68F1
:1003C000D9F80060ED034D4601D5164300E0964391
:1003D0002E604D68DAF80060AD03554601D516432E
:1003E00000E096432E604D68DBF80060ED025D464C
:1003F00001D5164300E096432E604D68DEF800609C
:10040000AD02754601D5164300E096432E60641C8C
:100410000D682A46E5407FF431AFBDE8F88F000053
:1004200000040140000011100010024000000140D3
:1004300000080140000C0140001001400014014080
:100440000148806870470000080000200248816869
:10045000027811448160704708000020074810B5F9
:10046000016841F010010160032000F08FF80020C6
:1004700000F006F800F03EF8002010BD0020024019
:1004800000B5014687B00022192000F05FF819205E
:1004900000F04EF81348816941F400618161806980
:1004A00005A900F400600690684600F017F900F016
:1004B00045F90D490D4AB0FBF1F10D48491E0260A6
:1004C000416040F2E7320021C0E90321816000F081
:1004D0000DFB10B1012007B000BD054800F034FB52
:1004E000F9E700000010024040420F00002C0140DC
:1004F0000C0300200C4808B5816941F001018161BD
:10050000816901F001010091C16941F08051C1612F
:10051000C06900F0805000900448416821F0E0611B
:1005200041F00071416008BD001002400000014030
:10053000002809DB00F01F020121914040098000E2
:1005400000F1E020C0F8001170470000F0B40E4B3D
:100550001B680C46C3F30223C3F10705042D00D921
:100560000425191D072901D2002300E0DB1E012606
:1005700006FA05F1491E214099409E40761E16401C
:100580003143F0BC00F09BBD0CED00E0064900F0EB
:10059000070208684FF6FF03184040EA0220034AAA
:1005A00010430860704700000CED00E00000FA0501
:1005B0002DE9F0470F46050061D0434E306800F04A
:1005C0000700B84209D2306820F007003843306095
:1005D000306800F00700B84251D128683B4C8107D1
:1005E00012D5400703D5606840F4E0606060287869
:1005F000000703D5606840F4605060606068A968D7
:1006000020F0F000084360602878C00728D06868B0
:10061000012810D02168022810D0890700292EDA7D
:10062000616821F0030101436160FFF709FF804623
:1006300041F288390DE021688903EFE78901EDE790
:10064000FFF7FEFEA0EB0801494502D90320BDE8F3
:10065000F0876068696800F00C00B0EB810FEFD1A3
:10066000306800F00700B8420BD9306820F007006E
:1006700038433060306800F00700B84201D00120F4
:10068000E5E72878400705D56068E96820F4E06070
:10069000084360602878000706D56068296920F45F
:1006A000605040EAC100606000F058F86168084A94
:1006B000C1F30311515CC840064908600648006850
:1006C000FFF7DEFE0020C2E70020024000100240DB
:1006D000D8250008140000200C0000200F22026022
:1006E0000C4A536803F003034360536803F0F003BC
:1006F0008360536803F4E063C36052684FF4E063BF
:1007000003EAD20202610448006800F007000860B2
:1007100070470000001002400020024004480549D4
:1007200000684968044AC1F30221515CC84070471F
:100730001400002000100240E82500080448054984
:1007400000684968044AC1F3C221515CC84070473F
:100750001400002000100240E825000812A185B016
:100760000FC98DE80F0014A0144A00680490516866
:10077000134801F00C03042B10D0082B0ED1C1F349
:100780008343C9031DF803000AD5516804AAC1F3C5
:100790004041515C0A4A5043B0FBF1F005B070474C
:1007A00008494843FAE70000020304050607080960
:1007B0000A0B0C0D0E0F1010010200000010024079
:1007C00000127A0000093D002DE9F84F040070D0B6
:1007D0002078C04DC00749D06868C0F38100012867
:1007E00007D06868C0F38100022809D16868C00397
:1007F00006D52868800339D560680028E7D035E041
:100800006068B0F5803F0BD010B1B0F5A02F11D0CB
:10081000286820F480302860286820F4802002E0D6
:10082000286840F480302860606890B1FFF708FEC7
:1008300006460AE0286840F480202860F0E700BF00
:10084000FFF7FEFD801B642873D828688003F7D566
:100850000CE0FFF7F5FD064605E000BFFFF7F0FDF1
:10086000801B6428F0D828688003F7D420789A4E3B
:1008700080074FF001094FF0000839D5686810F083
:100880000C0F07D06868C0F38100022809D168689E
:10089000C00306D42868800714D52069012808D130
:1008A00010E02069B0B1C6F80090FFF7C9FD074617
:1008B00005E00AE1FFF7C4FDC01B0228C4D8286880
:1008C0008007F7D52868616920F0F80040EAC10088
:1008D00028600DE0C6F80080FFF7B2FD074604E08F
:1008E000FFF7AEFDC01B022823D828688007F7D485
:1008F000207800072CD57948A169D9B1C0F80090BB
:10090000FFF79EFD074604E0FFF79AFDC01B022893
:100910000FD8686A8007F7D571484FF4FA5100681C
:10092000B0FBF1F0009000BF0098411E0091FAD298
:100930000EE080E0C0F80080FFF782FD074604E08B
:10094000FFF77EFDC01B022875D8686A8007F7D4C0
:100950002078400760D5E8690027C00008D4E8691E
:1009600040F08050E861E869012700F08050009075
:100970005C480168C90513D40168834641F480715D
:100980000160FFF75DFD824606E000BFFFF758FDFE
:10099000A0EB0A0064284ED8DBF80000C005F5D5AE
:1009A000E06801280AD008B1052813D0286A20F091
:1009B00001002862286A20F0040002E0286A40F062
:1009C00001002862E06841F2883B98B1FFF738FDEA
:1009D00082460BE0286A40F004002862EEE700BF80
:1009E000FFF72EFDA0EB0A0159455AD8286A800767
:1009F000F6D50CE0FFF724FD824605E0FFF720FD69
:100A0000A0EB0A0159454CD8286A8007F6D41FB1DB
:100A1000E86920F08050E861E06988B36968C1F353
:100A20008101022944D00228C6F8608004D0FFF773
:100A300007FD044638E034E0FFF702FD074604E016
:100A4000FFF7FEFCC01B02282BD828688001F7D4D2
:100A5000206AB0F5803F05D16868A16820F40030B5
:100A600008436860D4E908010843696821F47411F7
:100A700008436860C6F86090FFF7E2FC044606E0B1
:100A800025E000BFFFF7DCFC001B022809D828681E
:100A90008001F7D51BE000BFFFF7D2FC001B022846
:100AA00002D90320BDE8F88F28688001F4D40EE055
:100AB0000128F7D06868226A00F48031914204D19D
:100AC000616A00F47010884201D00120EAE700203A
:100AD000E8E7000000100240000042428004424269
:100AE00014000020007000407047704710B50400EB
:100AF00003D094F83D0010B107E0012010BD0020A4
:100B000084F83C00204600F01EF8022084F83D00E6
:100B1000211D206800F00EFA012084F8460084F8B8
:100B20003E0084F83F0084F8400084F8410084F8D7
:100B3000420084F8430084F8440084F8450084F8B7
:100B40003D00002010BD704790F83D10012901D0F4
:100B500001207047022180F83D100168CA6842F008
:100B60000102CA6000680B49884208D0B0F1804F8A
:100B700005D00949884202D00849884204D18168D9
:100B800001F00701062903D0016841F0010101606D
:100B900000207047002C0140000400400008004085
:100BA000704770B50446006801694FF00005C943FD
:100BB000890715D4C168C943890711D4E91E0161A9
:100BC00001202077206880698007204602D0FFF747
:100BD000E7FF04E000F098F8204600F096F825774B
:100BE00020680169C943490717D4C168C943490747
:100BF00013D46FF00401016102202077206880691E
:100C000010F4407F204602D0FFF7CAFF04E000F056
:100C10007BF8204600F079F8257720680169C94300
:100C2000090716D4C168C943090712D46FF0080137
:100C30000161042020772068C0698007204602D027
:100C4000FFF7AEFF04E000F05FF8204600F05DF82B
:100C5000257720680169C943C90617D4C168C9430B
:100C6000C90613D46FF010010161082020772068B5
:100C7000C06910F4407F204602D0FFF791FF04E0E6
:100C800000F042F8204600F040F82577206801691E
:100C9000C943C90708D1C168C943C90704D1891E1E
:100CA0000161204600F032F820680169C943090655
:100CB00009D4C168C943090605D46FF080010161F8
:100CC0002046FFF711FF20680169C943490609D48E
:100CD000C168C943490605D46FF04001016120464F
:100CE00000F01EF820680169C94389060BD4C16869
:100CF000C943890607D46FF0200101612046BDE891
:100D00007040FFF7F2BE70BD70477047006803493E
:100D1000884201D1FFF79ABB70470000002C0140C8
:100D2000704770B5040004D094F83900002510B164
:100D300006E0012070BD84F83850204600F022F80B
:100D4000242084F839002068C16821F40051C16072
:100D5000204600F025F92068016921F490410161E5
:100D60002068416921F02A0141612068C16841F48D
:100D70000051C160E563202084F8390084F83A000E
:100D8000002070BD30B585B0002400940194029419
:100D9000039400681449884224D11448816941F4BD
:100DA00080418161816901F480410491816941F050
:100DB0000401816180690E4D00F0040004904FF43D
:100DC000007000900220019003200390694628469D
:100DD000FFF746FA2815CDE9000469462846029433
:100DE000FFF73EFA05B030BD003801400010024068
:100DF000000801402DE9F843044690F839001F46E9
:100E000016460D4620284CD1C5B1BEB194F8380025
:100E1000012846D0012084F838004FF00008C4F8BB
:100E20003C80212084F83900FFF70AFBA684814624
:100E3000E684A068B0F5805F03D004E00120BDE83F
:100E4000F883206928B12E465FF0000584F83880C9
:100E50000EE00026FAE78021204600F0FDF8A0B958
:100E6000AEB116F8010B21684860E08C401EE084AA
:100E7000E08C4B464FF0000200970028EBD14FF07A
:100E80004001204600F0E8F830B10320D7E735F8FC
:100E9000020BC0F30800E6E7202084F839000020A8
:100EA000CDE70220CBE7FEE7FEE7704710B5502004
:100EB00080F31188BFF34F8FBFF36F8F01F0F6F906
:100EC00018B104494FF080500860002080F3118869
:100ED00010BD000004ED00E030B58FB02821684659
:100EE000FFF785F914210AA8FFF781F90121080409
:100EF000CDE900100024029402250491CDE90750A9
:100F00004FF4E01009906846FFF75EFC0F20CDE932
:100F10000A056802CDE90C4002210AA80E94FFF7E9
:100F200047FB0FB030BD70470148FFF73ABE0000E5
:100F30000C030020F0B50268164B174C174D4FF00C
:100F40008047984205D0B84203D0A04201D0A842C1
:100F500003D122F070064A683243984205D0B84265
:100F600003D0A04201D0A84203D122F44074CA6841
:100F700022434C6922F08002224302608A68C262E6
:100F80000A688262984201D10969016301214161C5
:100F9000F0BD0000002C01400004004000080040AB
:100FA00070B5044600680169E26821F440511143BC
:100FB00001612169A0680843616908432168CA6822
:100FC00041F20C639A430243CA6020684169A269F6
:100FD00021F44071114341611E492068884202D1C9
:100FE000FFF7ACFB01E0FFF799FB00EBC00101EB61
:100FF0000012606864218000B2FBF0F3B3FBF1F3F0
:101000006FF018067343B2FBF0F5B2FBF0F605EB98
:101010008305322303EB0515B5FBF1F5B6FBF1F6BD
:1010200005F0F00505EB0615B2FBF0F6B2FBF0F0AB
:10103000B0FBF1F06FF01802504306EB800003EBB9
:101040000010B0FBF1F0216800F00F002844886028
:1010500070BD0000003801402DE9F0419846174668
:101060000E460446069D1DE0681C1BD02DB1FFF7FF
:10107000E7F9A0EB0800A84214D92068C16821F460
:10108000D071C1602068416921F0010141612020D7
:1010900084F8390084F83A00002084F838000320EE
:1010A000BDE8F0812068006836EA000004D0002026
:1010B000B842D9D00020F3E70120F9E7FEE709079D
:1010C000090E002804DB00F1E02080F800147047CE
:1010D00000F00F0000F1E02080F8141D704702E0DE
:1010E00008C8121F08C1002AFAD1704770470020B3
:1010F00001E001C1121F002AFBD170471CB5FFF7A8
:10110000ADF9FFF7E9FE3048816941F020018161C6
:10111000816901F020010091816941F00401816140
:1011200080692A4900F004000090294800240160E9
:101130004FF41651C0E901140C21C460C0E9044108
:101140008461C461FFF7EDFD012000F02FFE214D09
:10115000686048B120A63046FFF754F882B2642395
:1011600031461B48FFF746FE03220021012000F014
:1011700028FE286048B11CA52846FFF743F882B234
:10118000642329461248FFF735FE0120CDE900040B
:10119000002380221BA11E4801F022F80220CDE985
:1011A0000004002380221BA11D4801F019F8032030
:1011B000CDE90004002380221AA11D4801F010F897
:1011C00000F012FDFEE70000001002400038014070
:1011D00078000020000000204D757465782063724F
:1011E00065617465640D0A0042696E61727920530D
:1011F000656D6170686F72652063726561746564A6
:101200000D0A000053656E64657220310000000015
:101210003519000853656E646572203200000000C5
:10122000D519000853656E64657220330000000014
:10123000091A00082DE9F041184C0F460546666969
:101240002068001D00F0B2FA38B9206890F82C1020
:1012500001208840A1698143A161681C07D137B191
:101260002168BDE8F0410E48091D00F0E3BA20688E
:101270003544B5424560216805D2A068BDE8F0411B
:10128000091D00F0BFBA6068091D00F0BBFA206BB1
:10129000854200D22563BDE8F081000018000020DF
:1012A000300400202DE9F041054600F0CFFA2E4C25
:1012B0002069401C206120682C4F10B1E06940B3C8
:1012C0002DE025602069012829D1002606EB860043
:1012D00007EB800000F088FA761C072EF6D323482F
:1012E0008C3000F081FA2148A03000F07DFA1F48D0
:1012F000B43000F079FA1D48C83000F075FA1B4888
:10130000DC3000F071FA19488C3060601430A06055
:1013100005E02068E96AC06A884200D82560E06A72
:10132000401CE062E96A0120A26988401043A06184
:1013300001EB810007EB8000291D00F07BFA00F033
:10134000A5FAE06900280CD02068E96AC06A8842E2
:1013500007D207494FF080500860BFF34F8FBFF3AB
:101360006F8FBDE8F08100001800002054030020BA
:1013700004ED00E02DE9F041856B17460446002698
:10138000026C82B1C7B1E068FEF718FFE168206C1B
:10139000091AE1602268914202D26168081AE0608D
:1013A000022F16D017E02068A8B9606800F0E2FFAD
:1013B0000646002060600EE0A068FEF7FFFE216C8C
:1013C000A0680844A0606168884204D32068A060D7
:1013D00001E005B16D1E6D1CA5633046BDE8F081CE
:1013E00010B5044690F8510058B101280CD00228DD
:1013F0000FD0502080F31188BFF34F8FBFF36F8F52
:10140000FEE7206B00F056FA2046BDE8104000F0E1
:1014100051BA10BD10484FF44061420706D0C01DBC
:101420000D4920F00700411AC1F540610B4A002325
:101430000144C2E900030839103A21F007011160A4
:101440004B600B600B1AC0E9001393604FF0004033
:101450005360D06070470000440400206400002006
:10146000144E154CA6F1C8074FF08058DFF84C9089
:1014700012E000BF00F0EAF9F068C568281D00F02E
:1014800095F92069401E2061E068401EE06000F090
:10149000FDF92846FFF7A4FFE0680028EAD1386884
:1014A0000128F9D9C9F80080BFF34F8FBFF36F8FC0
:1014B000F2E700001C0400201800002004ED00E00A
:1014C000002807D00021416001600B460A46C16038
:1014D00000F0E0BC70470346009829B10260C0E903
:1014E0000F31012100F092BC0060F8E72DE9F047D0
:1014F0009A46DDE9098481466FF00303206B03EB14
:1015000082021044089D20F00706700707D0502083
:1015100080F31188BFF34F8FBFF36F8FFEE723185F
:101520000A5C83F834200A5C12B1401C1028F6D300
:10153000002784F84370072D00D30625E562C4E92F
:101540001157201D00F05BF904F1180000F057F965
:101550002461C5F107006462A061E76484F85070FB
:1015600052464946304600F00FF92060B8F1000FAE
:1015700001D0C8F80040BDE8F087000030B511493F
:1015800000E011460A688242FBD34B685C18844233
:1015900003D1406818444860084643681C189442C8
:1015A00009D1084C103C2468A24209D052681A4460
:1015B00042600A6812680260814200D0086030BD53
:1015C0000460F9E76400002010B5044600F03EF91D
:1015D000A06B28B15FF0000400F058F9204610BD60
:1015E0000124F9E706484168096829B14168C968DA
:1015F000C9684968016370474FF0FF31FAE700009E
:101600001800002008484068401C4FF0500080F34C
:10161000118804D0BFF34F8FBFF36F8FFEE7BFF386
:101620004F8FBFF36F8FFEE76C0000202DE9F04174
:10163000044600F00BF994F9455004F1240609E042
:10164000606A48B1304600F02BFF08B100F05AFA4A
:101650006D1E6DB2002DF3DC4FF0FF3684F845604F
:1016600000F014F900F0F2F894F9445004F1100776
:1016700009E0206948B1384600F012FF08B100F0D7
:1016800041FA6D1E6DB2002DF3DC84F84460BDE8B4
:10169000F04100F0FBB800002DE9F04105460027BD
:1016A00000F0D8FA314E306808B9FFF7B3FEF068A1
:1016B00005424BD1C5B3083568070ED005F00700C9
:1016C000C0F108000544680707D0502080F3118856
:1016D000BFF34F8FBFF36F8FFEE72DB37068854266
:1016E00034D82248103001460C6801E020460C46F0
:1016F0006168A94202D221680029F7D131688C4281
:1017000024D007682168016060680837411B1029F0
:101710000FD96019420708D0502080F31188BFF319
:101720004F8FBFF36F8FFEE710E041606560FFF7FA
:1017300025FF61687068401A7060B268904200D2FC
:10174000B060F06801430020C4E9000100F0E2FE4F
:10175000780707D0502080F31188BFF34F8FBFF375
:101760006F8FFEE73846BDE8F0810000540000208E
:101770000449086818B10868826C521C82640868C1
:10178000704700001800002010B5031F4FF0807450
:101790001C601B1F21F001011960191F024B0B6017
:1017A000143940380A6010BD05160008D0E901322E
:1017B00001699A60D0E901235A604A68824201D1E6
:1017C00082684A60002202610868401E086008685A
:1017D00070470000034B036003F154000860802051
:1017E00010607047B800002000F108014FF0FF3290
:1017F000C0E90112C1600161002101607047002150
:101800000161704730B50B685A1C02D000F1080224
:1018100002E0026904E02246546825689D42FAD934
:1018200053684B6099608A60516008610168491C87
:10183000016030BD42684A6093688B60936859606C
:10184000916008610168491C01607047502080F375
:101850001188BFF34F8FBFF36F8F0A494868401C50
:10186000486001280CD10848006810F0FF0F07D02D
:10187000502080F31188BFF34F8FBFF36F8FFEE7C7
:10188000704700006C00002004ED00E00849486843
:1018900028B1401E486001D180F311887047502064
:1018A00080F31188BFF34F8FBFF36F8FFEE7000007
:1018B0006C00002070B5002827D0144DA0F108045A
:1018C0006168E868014207D1502080F31188BFF3B6
:1018D0004F8FBFF36F8FFEE722683AB1502080F33D
:1018E0001188BFF34F8FBFF36F8FFEE781436160B5
:1018F00000F0B0F960686968084468602046FFF746
:101900003DFEBDE8704000F005BE70BD54000020F3
:101910004FF0E02000210161816105494FF47A72A6
:101920000968B1FBF2F1491E41610721016170476D
:10193000140000200EA519A61CA44FF4FA6728462F
:10194000FEF760FC82B2C82329462148FFF752FA0D
:10195000304600F0B5F92046FEF754FC82B2C823A9
:1019600021461B48FFF746FA384600F09DF8E6E7A7
:10197000456E74657265642053656E6465722031CE
:1019800020616E642041626F757420746F207461F1
:101990006B65204D757465780D0A0000496E205303
:1019A000656E64657220310D0A0000004769766536
:1019B000204D7574657820616E64204C6561766990
:1019C0006E672053656E64657220310D0A0D0A0042
:1019D0007800002007A44FF4FA652046FEF712FCB9
:1019E00082B2642321460748FFF704FA284600F034
:1019F0005BF8F2E7496E2053656E64657220320D24
:101A00000A0D0A00780000200EA519A61CA44FF4A8
:101A1000FA672846FEF7F6FB82B2C823294621481A
:101A2000FFF7E8F9304600F04BF92046FEF7EAFBF5
:101A300082B2C82321461B48FFF7DCF9384600F084
:101A400033F8E6E7456E74657265642053656E642D
:101A50006572203320616E642041626F757420745A
:101A60006F2074616B65204D757465780D0A0000F8
:101A7000496E2053656E64657220330D0A000000C4
:101A800047697665204D7574657820616E64204CD9
:101A9000656176696E672053656E64657220330DEB
:101AA0000A0D0A007800002010B5020014D00F487B
:101AB000806B38B1502080F31188BFF34F8FBFF394
:101AC0006F8FFEE700F0C6F800211046FFF7B2FB6B
:101AD00000F020FD002807D105494FF08050086034
:101AE000BFF34F8FBFF36F8F10BD000018000020B1
:101AF00004ED00E002498A6A02604969416070476A
:101B00001800002001490120486270471800002099
:101B100010B50C4650B1094909681831FFF772FE3B
:101B20002046BDE810400121FFF784BB502080F320
:101B30001188BFF34F8FBFF36F8FFEE718000020AF
:101B400070B504004BD0A26CA2B1606C884200D387
:101B50000146E06A884242D0012A40D1204D2A68DD
:101B600094420FD1502080F31188BFF34F8FBFF301
:101B70006F8FFEE7502080F31188BFF34F8FBFF3C4
:101B80006F8FFEE7E162A269002A02DBC1F1070163
:101B9000A161144E00EB8000616906EB8000814278
:101BA0001DD1201DFFF702FE012150B9E06A00EBB4
:101BB000800256F8222022B9AA6901FA00F0824375
:101BC000AA61E06AAA6981401143A96100EB800023
:101BD00006EB8000211DBDE87040FFF72BBE70BDF5
:101BE000180000205403002010B586B00024039490
:101BF00005AA04A903A80494FFF7ECFDDDE903019D
:101C00000094CDE9011000230EA11048059A00F0C0
:101C100014FB0F490028486311D0502080F311882D
:101C2000BFF34F8FBFF36F8F4FF0FF30086301207A
:101C3000C8614C6106B0BDE8104000F063B806B062
:101C400010BD000049444C4500000000611400082C
:101C5000180000200248816B491C81637047000016
:101C6000180000201448816B11B1012141627047B6
:101C7000002141628169B1FA81F1C1F11F0101EBDB
:101C800081020E4951F822306BB101EB820101F162
:101C900008034A6852684A609A4201D152684A6011
:101CA000D16801607047502080F31188BFF34F8FD7
:101CB000BFF36F8FFEE700001800002054030020E0
:101CC00070B50E4C06464FF0FF352946606800F0AF
:101CD00091F94FF4FA60FEF7B1FA3046FEF792FA46
:101CE00082B22B4631460648FFF784F86068BDE8AB
:101CF000704000231A46194600F0CCB800000020BE
:101D0000780000201CB5264908780190FF20087053
:101D100008788DF800009DF800009DF8002000F084
:101D2000F000904207D0502080F31188BFF34F8F0E
:101D3000BFF36F8FFEE79DF800001A4B00F05000D4
:101D400018700720986005E09DF8002052008DF87B
:101D50000020401E9DF800201206F5D4986003284C
:101D600007D0502080F31188BFF34F8FBFF36F8FE0
:101D7000FEE74FF440709860019808700A480168C7
:101D800041F470010160016841F070410160FFF7AA
:101D9000BFFD00205860FEF7C5F900201CBD000003
:101DA00000E400E06C00002020ED00E010B50246E9
:101DB0000021012000F005F80446FFF781FB2046D2
:101DC00010BDF8B517460E46050014D0DEB105FB70
:101DD00006F04830FFF760FC04000AD0002084F8C9
:101DE000460004F148023B46314628460094FFF77E
:101DF00072FB2046F8BD502080F31188BFF34F8F4F
:101E0000BFF36F8FFEE70020E3E7000070B50D46DB
:101E1000040025D0FFF71AFDD4E90F20216802FB4A
:101E2000001161600021A1632168A1600A46D4E924
:101E30000F01401E00FB0121E16021464FF0FF3001
:101E400001F8440F487004F110008DB1FFF7CCFC8D
:101E500004F12400FFF7C8FCFFF718FD012070BD56
:101E6000502080F31188BFF34F8FBFF36F8FFEE7D1
:101E700021690029F0D000F013FB0028ECD00449C0
:101E80004FF080500860BFF34F8FBFF36F8FE3E7D1
:101E900004ED00E02DE9FF4782B01D468A464FF071
:101EA0000008040003D0BAF1000F08D011E0502060
:101EB00080F31188BFF34F8FBFF36F8FFEE7206C65
:101EC00038B1502080F31188BFF34F8FBFF36F8F6D
:101ED000FEE7022D0AD1E06B012807D0502080F3E5
:101EE0001188BFF34F8FBFF36F8FFEE700F0D0F97B
:101EF0003F4F4FF000094FF0805648B9049838B171
:101F0000502080F31188BFF34F8FBFF36F8FFEE730
:101F1000FFF79CFCA06BE16B884207D3022D05D034
:101F20000498D0B1B8F1000F1AD01EE02A465146ED
:101F30002046FFF71FFA616A19B104F1240000F08E
:101F4000AFFA20B13E60BFF34F8FBFF36F8FFFF743
:101F50009DFC012006B0BDE8F087FFF797FC22E06A
:101F60006846FFF7C7FD4FF00108FFF78FFCFFF74A
:101F700071FEFFF76BFC94F94400401C01D184F81A
:101F8000449094F94500401C01D184F84590FFF736
:101F90007DFC04A9684600F0E9F830B12046FFF75F
:101FA00045FB00F0B7FA0020D4E7FFF74FFCA06B29
:101FB000E16B884213D1FFF769FC04F1100004992A
:101FC000FFF7A6FD2046FFF731FB00F0A3FA00283B
:101FD0009ED13E60BFF34F8FBFF36F8F98E7FFF73F
:101FE00055FC2046FFF722FB00F094FA90E7000032
:101FF00004ED00E02DE9F343002683B004003546EC
:1020000009D0206C78B1502080F31188BFF34F8F36
:10201000BFF36F8FFEE7502080F31188BFF34F8F1F
:10202000BFF36F8FFEE700F033F9DFF83C814FF02C
:1020300000094FF0805748B9049838B1502080F318
:102040001188BFF34F8FBFF36F8FFEE7FFF7FEFBE3
:10205000A06BC8B1401EA063206810B9FFF788FBD1
:102060006060206950B104F1100000F019FA28B145
:10207000C8F80070BFF34F8FBFF36F8FFFF706FCF8
:10208000012005B0BDE8F083049808B166B10FE007
:102090003DB1502080F31188BFF34F8FBFF36F8F96
:1020A000FEE7FFF7F3FB5DE06846FFF723FD01263F
:1020B000FFF7ECFBFFF7CEFDFFF7C8FB94F94400F8
:1020C000401C01D184F8449094F94500401C01D192
:1020D00084F84590FFF7DAFB04A9684600F046F85B
:1020E0000028204612D0FFF7A1FA00F013FA20468C
:1020F000FFF76AFA0028A9D09DB3FFF7A7FB606A33
:1021000050B3206B0068C0F1070126E0FFF75CFACE
:10211000E0B1206838B9FFF799FB606800F076F904
:102120000546FFF7B3FB04F124000499FFF7F0FC28
:102130002046FFF77BFA00F0EDF9002886D1C8F8B9
:102140000070BFF34F8FBFF36F8F7FE72046FFF71D
:102150006DFA00F0DFF979E700216068FFF7F0FC25
:102160009FE7FFE700208CE704ED00E02DE9F04158
:102170000C46050011D0C4B1FFF768FB174B5A6934
:102180006E682068911B471C17D02F689B6A9F427E
:1021900019D0964217D8012410E0502080F31188FE
:1021A000BFF34F8FBFF36F8FFEE7502080F311888E
:1021B000BFF34F8FBFF36F8FFEE70024FFF766FB7F
:1021C0002046BDE8F081884205D9401A20602846A3
:1021D000FFF790FCF1E700202060DCE7180000200A
:1021E0002DE9FF5F8346DDE90E87994616468A464C
:1021F0009000FFF751FA05001CD05420FFF74CFA6D
:10220000040014D00020256384F85100CDE9024079
:10221000CDE900874B46324651465846FFF766F9EE
:102220002046FFF73FF8012004B0BDE8F09F2846A4
:10223000FFF740FB4FF0FF30F6E7F0B585B0DDE982
:102240000B640A9DA6B1DCB15427009726630226D1
:1022500084F85160002604AFCDE90246CDE900576D
:10226000FFF744F92046FFF71DF8049805B0F0BDCC
:10227000502080F31188BFF34F8FBFF36F8FFEE7BD
:10228000502080F31188BFF34F8FBFF36F8FFEE7AD
:102290000548C16919B1806B18B100207047012051
:1022A0007047022070470000180000202DE9F0411F
:1022B0002E4C0027A06B40B1206A401C2062606A4F
:1022C00000B101273846BDE8F0816669761C666179
:1022D00013D16068006838B1502080F31188BFF3D3
:1022E0004F8FBFF36F8FFEE76068A1686160A060E9
:1022F000A06A401CA062FFF775F9206BDFF87080C0
:10230000864209D36068006880B16068C068C568AB
:10231000686886420DD220632068C06A00EB8001A5
:1023200058F821000128CAD90127C8E74FF0FF302B
:10233000F1E7281DFFF73AFAA86A18B105F118006D
:10234000FFF734FAE86A0121A26981401143A161D3
:1023500000EB800108EB8100291DFFF76BFAE86AAA
:102360002168C96A8842CDD30127CBE71800002035
:102370005403002070B504004FF0000140D0214DFF
:102380002868844207D0502080F31188BFF34F8F14
:10239000BFF36F8FFEE7A06C38B1401EA064636C82
:1023A000E26A9A422CD040B12AE0502080F3118892
:1023B000BFF34F8FBFF36F8FFEE7201DFFF7F6F9D6
:1023C000114A012150B9E06A00EB800352F8233032
:1023D00023B9AB6901FA00F08343AB61606CE06242
:1023E000C0F10700A061E06AAB6981401943A961AF
:1023F00000EB800002EB8000211DFFF71BFA01219A
:10240000084670BD180000205403002070B5040079
:102410004FF0000038D0204DE16A2A68D26A91421C
:1024200033D2A069002804DB2868C06AC0F1070025
:10243000A0611A4E01EB8101606906EB81018842BF
:102440001ED1201DFFF7B2F9012150B9E06A00EB5F
:10245000800256F8222022B9AA6901FA00F08243CC
:10246000AA612868C06AE062AA6981401143A96133
:1024700000EB800006EB8000211DFFF7DBF902E096
:102480002868C06AE062012070BD616C2A68D26A67
:102490009142F8D370BD00001800002054030020C2
:1024A0002DE9F041C068C468ACB104F118000746DA
:1024B000FFF77CF9154DA86B0126A0B139461448E9
:1024C000FFF7B8F9E06A2968C96A88421CD9012077
:1024D0006E62BDE8F081502080F31188BFF34F8F0A
:1024E000BFF36F8FFEE7201DFFF760F9E16AAA696D
:1024F00006FA01F01043A86101EB81000449B439E8
:1025000001EB8000211DDBE70020E2E7180000203E
:10251000080400202DE9F0472C4D00242746A86B25
:1025200038B1FFF793F9A86B401EA863A86B40B1C0
:1025300046E0502080F31188BFF34F8FBFF36F8FB9
:10254000FEE72969224E0120D1B3A6F1B4098046E5
:102550003068E8B1F068C46804F11800FFF726F9A4
:10256000201DFFF723F9E06AAA6908FA00F1114378
:10257000A96100EB800109EB8100211DFFF75AF9E9
:10258000E06A2968C96A8842E2D3C5F82480DFE797
:102590000CB1FFF727F82C6A44B14646FFF786FED8
:1025A00000B16E62641EF9D100202862686A38B1F9
:1025B0000849012738070860BFF34F8FBFF36F8FBB
:1025C000FFF764F93846BDE8F087000018000020E6
:1025D0000804002004ED00E00000000000000000FE
:1025E00001020304060708090000000001020304B9
:1025F000102600080000002078000000DE1000080F
:102600008826000878000020D0130000EE10000893
:1026100000000000000000000100000010000000A9
:10262000000000000024F400000000000000000092
:10263000000000000000000000000000000000009A
:10264000000000000000000000000000000000008A
:10265000000000000000000000000000000000007A
:10266000000000000000000000000000000000006A
:10267000000000000000000000000000000000005A
:08268000AAAAAAAA00000000AA
:04000005080000ED02
:00000001FF
