:020000040800F2
:100000005014002099010008930E00088F0E00087C
:10001000910E000839020008D51200080000000007
:1000200000000000000000000000000001010008C6
:100030003B0200080000000045010008C510000850
:10004000B3010008B3010008B3010008B3010008C0
:10005000B3010008B3010008B3010008B3010008B0
:10006000B3010008B3010008B3010008B3010008A0
:10007000B3010008B3010008B3010008B301000890
:10008000B3010008B3010008B3010008B301000880
:10009000B3010008B3010008B3010008B301000870
:1000A000B301000841110008B3010008B3010008C2
:1000B000B3010008B3010008B3010008B301000850
:1000C000B3010008B3010008B3010008B301000840
:1000D000B3010008B3010008B3010008B301000830
:1000E000B3010008B3010008B3010008DFF80CD029
:1000F00000F090F800480047211300085014002039
:10010000224B19680868B0E8F00F80F30988BFF344
:100110006F8F4FF0000080F311884EF00D0E704786
:100120000000000006480068006880F3088862B696
:1001300061B6BFF34F8FBFF36F8F00DF00BF00BF0B
:1001400008ED00E0EFF30980BFF36F8F0F4B1A68E3
:1001500020E9F00F106008B54FF0500080F31188CF
:10016000BFF34F8FBFF36F8F01F088FE4FF0000099
:1001700080F31188BDE8084019680868B0E8F00FFE
:1001800080F30988BFF36F8F704700BF2000002005
:10019000EFF3058070470000064880470648004797
:1001A000FEE7FEE7FEE7FEE7FEE7FEE7FEE7FEE727
:1001B000FEE7FEE73F110008ED00000840EA0103FA
:1001C0009B0703D009E008C9121F08C0042AFAD20D
:1001D00003E011F8013B00F8013B521EF9D27047D1
:1001E000D2B201E000F8012B491EFBD27047002279
:1001F000F6E710B513460A4604461946FFF7F0FF26
:10020000204610BD421C10F8011B0029FBD1801AAA
:1002100070470000064C074D06E0E06840F001031F
:1002200094E8070098471034AC42F6D3FFF762FF1A
:10023000B8290008D8290008FEE770472DE9F84FD3
:10024000DFF8B891002409F1040A0AF1040B2346EF
:100250000F270BF1040EC9E00125A5402A40AA4250
:100260007DD1674ED1F804C0ACEB0608B44532D05E
:1002700014DCBCF1030F3AD009DCBCF1000F2AD02A
:10028000BCF1010F1CD0BCF1020F31D11DE0BCF15B
:10029000110F17D0BCF1120F2AD119E0B8F5881F41
:1002A00019D006DCB8F5803F15D0B8F5801F1FD1F6
:1002B00011E0B8F5001F0ED0B8F5041F18D10AE000
:1002C000CB6815E0CB681B1D12E0CB6808330FE04C
:1002D000CB680C330CE08B682BB1012B4FF008037B
:1002E00003D0456104E0042302E0056100E000233F
:1002F000FF2A01D8064601E000F104064FEA840512
:1003000001D9A5F12005D6F8008007FA05FC28EAF6
:100310000C0803FA05F548EA0508C6F800804D68A0
:10032000ED0062D5374DAE6946F00106AE61AD69AC
:1003300024F0030605F001050095334D06EB050C8E
:10034000DCF80850A607360F07FA06F825EA080574
:10035000DFF8B880404503D14FF0000817E044E0D3
:10036000DFF8AC80404502D14FF001080FE0DFF824
:10037000A480404502D14FF0020808E0DFF89880E1
:10038000404502D14FF0030801E04FF0040808FA9D
:1003900006F848EA0508CCF808804D68D9F80060EE
:1003A000ED034D4601D5164300E096432E604D689F
:1003B000DAF80060AD03554601D5164300E09643D8
:1003C0002E604D68DBF80060ED025D4601D51643F6
:1003D00000E096432E604D68DEF80060AD02754681
:1003E00001D5164300E096432E60641C0D682A4632
:1003F000E5407FF431AFBDE8F88F00000004014014
:1004000000001110001002400000014000080140EF
:10041000000C0140001001400014014080680840B9
:1004200000D001207047000001488068704700003C
:1004300010000020024881680278114481607047F2
:1004400010000020074810B5016841F0100101605C
:10045000032000F08FF8002000F006F800F03EF8CE
:10046000002010BD0020024000B5014687B00022E8
:10047000192000F05FF8192000F04EF81348816948
:1004800041F400618161806905A900F40060069073
:10049000684600F017F900F045F90D490D4AB0FB28
:1004A000F1F10D48491E0260416040F2E73200213F
:1004B000C0E90321816000F00DFB10B1012007B0FD
:1004C00000BD054800F034FBF9E7000000100240D1
:1004D00040420F00002C0140140300200C4808B5D6
:1004E000816941F001018161816901F0010100919F
:1004F000C16941F08051C161C06900F08050009035
:100500000448416821F0E06141F00071416008BD9C
:100510000010024000000140002809DB00F01F022B
:10052000012191404009800000F1E020C0F8001155
:1005300070470000F0B40E4B1B680C46C3F3022357
:10054000C3F10705042D00D90425191D072901D27F
:10055000002300E0DB1E012606FA05F1491E2140BA
:1005600099409E40761E16403143F0BC00F0B3BE69
:100570000CED00E0064900F0070208684FF6FF03A3
:10058000184040EA0220034A104308607047000008
:100590000CED00E00000FA052DE9F0470F460500DC
:1005A00061D0434E306800F00700B84209D230688D
:1005B00020F0070038433060306800F00700B84290
:1005C00051D128683B4C810712D5400703D560689C
:1005D00040F4E06060602878000703D5606840F46C
:1005E000605060606068A96820F0F00008436060B7
:1005F0002878C00728D06868012810D02168022810
:1006000010D0890700292EDA616821F00301014327
:100610006160FFF709FF804641F288390DE02168EB
:100620008903EFE78901EDE7FFF7FEFEA0EB080184
:10063000494502D90320BDE8F0876068696800F089
:100640000C00B0EB810FEFD1306800F00700B8422A
:100650000BD9306820F0070038433060306800F074
:100660000700B84201D00120E5E72878400705D50A
:100670006068E96820F4E06008436060287800075B
:1006800006D56068296920F4605040EAC1006060C6
:1006900000F058F86168084AC1F30311515CC84082
:1006A0000649086006480068FFF7DEFE0020C2E742
:1006B0000020024000100240882900081C00002091
:1006C000140000200F2202600C4A536803F0030359
:1006D0004360536803F0F0038360536803F4E063FE
:1006E000C36052684FF4E06303EAD2020261044837
:1006F000006800F00700086070470000001002402A
:10070000002002400448054900684968044AC1F3D2
:100710000221515CC84070471C00002000100240BC
:10072000982900080448054900684968044AC1F34B
:10073000C221515CC84070471C00002000100240DC
:100740009829000812A185B00FC98DE80F0014A0E8
:10075000144A006804905168134801F00C03042BFC
:1007600010D0082B0ED1C1F38343C9031DF8030039
:100770000AD5516804AAC1F34041515C0A4A50436A
:10078000B0FBF1F005B0704708494843FAE70000B4
:1007900002030405060708090A0B0C0D0E0F1010C2
:1007A000010200000010024000127A0000093D0022
:1007B0002DE9F84F040070D02078C04DC00749D013
:1007C0006868C0F38100012807D06868C0F3810021
:1007D000022809D16868C00306D52868800339D586
:1007E00060680028E7D035E06068B0F5803F0BD046
:1007F00010B1B0F5A02F11D0286820F48030286007
:10080000286820F4802002E0286840F480302860C6
:10081000606890B1FFF708FE06460AE0286840F4D9
:1008200080202860F0E700BFFFF7FEFD801B6428F2
:1008300073D828688003F7D50CE0FFF7F5FD06466E
:1008400005E000BFFFF7F0FD801B6428F0D82868A2
:100850008003F7D420789A4E80074FF001094FF0BB
:10086000000839D5686810F00C0F07D06868C0F32D
:100870008100022809D16868C00306D4286880076F
:1008800014D52069012808D110E02069B0B1C6F85C
:100890000090FFF7C9FD074605E00AE1FFF7C4FD38
:1008A000C01B0228C4D828688007F7D5286861696A
:1008B00020F0F80040EAC10028600DE0C6F8008092
:1008C000FFF7B2FD074604E0FFF7AEFDC01B0228AC
:1008D00023D828688007F7D4207800072CD57948DA
:1008E000A169D9B1C0F80090FFF79EFD074604E06A
:1008F000FFF79AFDC01B02280FD8686A8007F7D55A
:1009000071484FF4FA510068B0FBF1F0009000BF5D
:100910000098411E0091FAD20EE080E0C0F80080FD
:10092000FFF782FD074604E0FFF77EFDC01B0228AB
:1009300075D8686A8007F7D42078400760D5E869E1
:100940000027C00008D4E86940F08050E861E869F9
:10095000012700F0805000905C480168C90513D45D
:100960000168834641F480710160FFF75DFD8246B6
:1009700006E000BFFFF758FDA0EB0A0064284ED840
:10098000DBF80000C005F5D5E06801280AD008B101
:10099000052813D0286A20F001002862286A20F078
:1009A000040002E0286A40F001002862E06841F299
:1009B000883B98B1FFF738FD82460BE0286A40F08B
:1009C00004002862EEE700BFFFF72EFDA0EB0A014E
:1009D00059455AD8286A8007F6D50CE0FFF724FD60
:1009E000824605E0FFF720FDA0EB0A0159454CD8EF
:1009F000286A8007F6D41FB1E86920F08050E861CA
:100A0000E06988B36968C1F38101022944D00228F2
:100A1000C6F8608004D0FFF707FD044638E034E0F4
:100A2000FFF702FD074604E0FFF7FEFCC01B0228AB
:100A30002BD828688001F7D4206AB0F5803F05D113
:100A40006868A16820F4003008436860D4E90801B0
:100A50000843696821F4741108436860C6F860901F
:100A6000FFF7E2FC044606E025E000BFFFF7DCFCF0
:100A7000001B022809D828688001F7D51BE000BFB9
:100A8000FFF7D2FC001B022802D90320BDE8F88F33
:100A900028688001F4D40EE00128F7D06868226A43
:100AA00000F48031914204D1616A00F470108842F0
:100AB00001D00120EAE70020E8E700000010024032
:100AC00000004242800442421C00002000700040AE
:100AD0007047704710B5040003D094F83D0010B182
:100AE00007E0012010BD002084F83C00204600F003
:100AF0001EF8022084F83D00211D206800F026FB2E
:100B0000012084F8460084F83E0084F83F0084F811
:100B1000400084F8410084F8420084F8430084F8DF
:100B2000440084F8450084F83D00002010BD704763
:100B300090F83D10012901D001207047022180F872
:100B40003D100168CA6842F00102CA6000680B49A2
:100B5000884208D0B0F1804F05D00949884202D0C0
:100B60000849884204D1816801F00701062903D0B1
:100B7000016841F00101016000207047002C014034
:100B80000004004000080040704770B5044600684B
:100B900001694FF00005C943890715D4C168C943ED
:100BA000890711D4E91E016101202077206880693E
:100BB0008007204602D0FFF7E7FF04E000F098F836
:100BC000204600F096F8257720680169C943490757
:100BD00017D4C168C943490713D46FF004010161F8
:100BE000022020772068806910F4407F204602D0E0
:100BF000FFF7CAFF04E000F07BF8204600F079F828
:100C0000257720680169C943090716D4C168C9431B
:100C1000090712D46FF008010161042020772068D1
:100C2000C0698007204602D0FFF7AEFF04E000F065
:100C30005FF8204600F05DF8257720680169C94318
:100C4000C90617D4C168C943C90613D46FF010018F
:100C50000161082020772068C06910F4407F204699
:100C600002D0FFF791FF04E000F042F8204600F0C8
:100C700040F8257720680169C943C90708D1C168D0
:100C8000C943C90704D1891E0161204600F032F82A
:100C900020680169C943090609D4C168C943090626
:100CA00005D46FF0800101612046FFF711FF206835
:100CB0000169C943490609D4C168C943490605D435
:100CC0006FF040010161204600F01EF820680169C4
:100CD000C94389060BD4C168C943890607D46FF09C
:100CE000200101612046BDE87040FFF7F2BE70BDF3
:100CF0007047704700680349884201D1FFF79ABBEB
:100D000070470000002C0140704770B5040004D00B
:100D100094F83900002510B106E0012070BD84F878
:100D20003850204600F022F8242084F8390020684A
:100D3000C16821F40051C160204600F03DFA2068EE
:100D4000016921F4904101612068416921F02A0183
:100D500041612068C16841F40051C160E563202011
:100D600084F8390084F83A00002070BD30B585B0B1
:100D7000002400940194029403940068144988426A
:100D800024D11448816941F480418161816901F471
:100D900080410491816941F00401816180690E4DB7
:100DA00000F0040004904FF40070009002200190C5
:100DB0000320039069462846FFF740FA2815CDE93D
:100DC0000004694628460294FFF738FA05B030BDA2
:100DD0000038014000100240000801402DE9F843AE
:100DE000044690F839001F4616460D4620284CD17F
:100DF000C5B1BEB194F83800012846D0012084F86E
:100E000038004FF00008C4F83C80212084F83900F5
:100E1000FFF70AFBA6848146E684A068B0F5805FF0
:100E200003D004E00120BDE8F883206928B12E46F4
:100E30005FF0000584F838800EE00026FAE7802194
:100E4000204600F015FAA0B9AEB116F8010B2168E2
:100E50004860E08C401EE084E08C4B464FF000027E
:100E600000970028EBD14FF04001204600F000FA37
:100E700030B10320D7E735F8020BC0F30800E6E7EE
:100E8000202084F839000020CDE70220CBE7FEE7E0
:100E9000FEE770470FF26C090FF29408374D384C9B
:100EA0002BA74FF0FF3A4FF400664846FFF7AAF928
:100EB00082B2C82349463348FFF790FF5146E068A5
:100EC00000F0F0FA4046FFF79DF982B2C823414690
:100ED0002C48FFF783FF31462846FFF79FFA00288A
:100EE000F9D13846FFF78EF982B2C8233946254832
:100EF000FFF774FFE06800F0ADFA4FF4FA7000F00D
:100F00007DFAD2E7456E7465726564205461736B37
:100F1000203120616E642077616974696E67206694
:100F20006F722053656D6170686F72650D0A000005
:100F300053656D6170686F72652061637175697268
:100F40006564206279205461736B20310D0A0000C2
:100F50004C656176696E67207461736B2031206126
:100F60006E642072656C656173696E672053656D90
:100F700061706F72650D0A0D0A00000000080140E3
:100F800000000020800000200CA511A44FF4FA7688
:100F90002846FFF737F982B2C82329461148FFF7E0
:100FA0001DFF2046FFF72EF982B2C82321460D48C7
:100FB000FFF714FF304600F021FAE9E7456E74654B
:100FC000726564205461736B20320D0A00000000CA
:100FD0004C656176696E67205461736B20320D0A2F
:100FE0000D0A000080000020344C16A720A628A57A
:100FF0004FF0FF384FF4FA793846FFF703F982B221
:10100000C82339462E48FFF7E9FE4146E06800F064
:1010100049FA3046FFF7F6F882B2C823314628482D
:10102000FFF7DCFE2846FFF7EDF882B2C823294619
:101030002348FFF7D3FEE06800F00CFA484600F0C2
:10104000DDF9D9E7456E7465726564205461736B90
:10105000203320616E642077616974696E67206651
:101060006F722053656D6170686F72650D0A0000C4
:1010700053656D6170686F72652061637175697227
:101080006564206279205461736B20330D0A00007F
:101090004C656176696E67207461736B20332061E3
:1010A0006E642072656C656173696E672053656D4F
:1010B00061706F72650D0A0D0A00000000000020CB
:1010C0008000002010B5502080F31188BFF34F8FAF
:1010D000BFF36F8F01F098FA18B104494FF08050B8
:1010E0000860002080F3118810BD000004ED00E0CE
:1010F00030B58FB028216846FFF779F814210AA887
:10110000FFF775F801210804CDE9001000240294CE
:1011100002250491CDE907504FF4E010099068468C
:10112000FFF746FB0F20CDE90A056802CDE90C4028
:1011300002210AA80E94FFF72FFA0FB030BD7047B6
:101140000148FFF722BD000014030020F0B502683B
:10115000164B174C174D4FF08047984205D0B842B8
:1011600003D0A04201D0A84203D122F070064A6801
:101170003243984205D0B84203D0A04201D0A842E1
:1011800003D122F44074CA6822434C6922F08002E1
:10119000224302608A68C2620A688262984201D170
:1011A0000969016301214161F0BD0000002C01408B
:1011B000000400400008004070B504460068016962
:1011C000E26821F44051114301612169A06808439C
:1011D000616908432168CA6841F20C639A4302437B
:1011E000CA6020684169A26921F4407111434161DC
:1011F0001E492068884202D1FFF794FA01E0FFF708
:1012000081FA00EBC00101EB0012606864218000EC
:10121000B2FBF0F3B3FBF1F36FF018067343B2FBCC
:10122000F0F5B2FBF0F605EB8305322303EB051571
:10123000B5FBF1F5B6FBF1F605F0F00505EB06158B
:10124000B2FBF0F6B2FBF0F0B0FBF1F06FF0180279
:10125000504306EB800003EB0010B0FBF1F0216877
:1012600000F00F002844886070BD00000038014085
:101270002DE9F041984617460E460446069D1DE0AE
:10128000681C1BD02DB1FFF7CFF8A0EB0800A842D7
:1012900014D92068C16821F4D071C1602068416907
:1012A00021F001014161202084F8390084F83A00DE
:1012B000002084F838000320BDE8F0812068006831
:1012C00036EA000004D00020B842D9D00020F3E76D
:1012D0000120F9E7FEE70907090E002804DB00F109
:1012E000E02080F80014704700F00F0000F1E020CB
:1012F00080F8141D704702E008C8121F08C1002AB8
:10130000FAD170477047002001E001C1121F002A86
:10131000FBD17047EFF30580002800D00120704713
:101320009CB0FFF78FF8FFF7E3FE00242A481694DD
:101330001894816941F020018161816901F02001E7
:101340001B91816941F004018161806915A900F058
:1013500004001B904FF400601590012017901F4867
:10136000FEF76CFF1F481E4901604FF41651C0E99B
:1013700001140C21C460C0E904418461C461FFF719
:10138000C4FC1994012119A81A9400F043F8164CD2
:101390001C221649E0606846FEF710FF00216846EF
:1013A00000F0B2F8114920601C221C3107A8FEF79A
:1013B00005FF002107A800F0A7F80C4960601C2277
:1013C00038310EA8FEF7FAFE00210EA800F09CF8B6
:1013D000A06000F01AF8FEE700100240000801408B
:1013E000003801408000002000000020342900085F
:1013F00001460020842900D0C81C704710B500B9F0
:10140000012000F05DFC002010BD10B500F0F8FCDC
:10141000002010BD38B543684BB1012909D1032024
:10142000002200901146012000F0CEFD38BD0129B8
:1014300001D0002038BD03220021012000F0A0FDD2
:10144000040004D000231A46194600F035FE204659
:1014500038BD000038B5002405460094FFF75AFF58
:1014600090B16946284600F0D7FE012801D0FF2040
:1014700038BD009888B10A494FF080500860BFF32A
:101480004F8FBFF36F8F08E000231A461946284696
:1014900000F012FE012800D0FF24204638BD0000D5
:1014A00004ED00E038B505004FF0000000900FD0CB
:1014B0000024481C0ED001B10C46FFF72BFFB8B139
:1014C0006A460021284600F0F5FE012816D104E006
:1014D000802038BD4FF0FF34EFE7009880B1094914
:1014E0004FF080500860BFF34F8FBFF36F8F07E05E
:1014F0002146284600F02CFF012801D0FF2038BDEE
:10150000002038BD04ED00E07FB50D46044641697A
:10151000B0F9080081B1A16971B1FFF769FFD4E9A1
:1015200005128DE80700D4E900102B46226901F06E
:1015300032F8039004B070BDFFF75AFF03A9CDE95C
:101540000001208A2B4682B2D4E9001000F0F6FF99
:10155000012801D00020EDE70398EBE72DE9F041E9
:10156000184C0F46054666692068001D00F0BAFA5F
:1015700038B9206890F82C1001208840A169814377
:10158000A161681C07D137B12168BDE8F0410E4860
:10159000091D00F0EBBA20683544B542456021686A
:1015A00005D2A068BDE8F041091D00F0C7BA606827
:1015B000091D00F0C3FA206B854200D22563BDE807
:1015C000F081000020000020380400202DE9F041C7
:1015D000054600F0D7FA2E4C2069401C2061206897
:1015E0002C4F10B1E06940B32DE02560206901283F
:1015F00029D1002606EB860007EB800000F090FA68
:10160000761C072EF6D323488C3000F089FA214847
:10161000A03000F085FA1F48B43000F081FA1D4870
:10162000C83000F07DFA1B48DC3000F079FA194828
:101630008C3060601430A06005E02068E96AC06A00
:10164000884200D82560E06A401CE062E96A012017
:10165000A26988401043A06101EB810007EB800084
:10166000291D00F083FA00F0ADFAE06900280CD0E3
:101670002068E96AC06A884207D207494FF0805063
:101680000860BFF34F8FBFF36F8FBDE8F08100009C
:10169000200000205C03002004ED00E030B4026C68
:1016A0000B46002A0BD0C1681144C1604468A142B6
:1016B00001D30168C16030BC1846FEF77FBD30BC65
:1016C00070472DE9F041856B174604460026026CF1
:1016D00082B1C7B1E068FEF771FDE168206C091ABC
:1016E000E1602268914202D26168081AE060022F2C
:1016F00016D017E02068A8B9606800F0E9FF064638
:10170000002060600EE0A068FEF758FD216CA06824
:101710000844A0606168884204D32068A06001E0AA
:1017200005B16D1E6D1CA5633046BDE8F08110B596
:10173000044690F8510058B101280CD002280FD06F
:10174000502080F31188BFF34F8FBFF36F8FFEE7F8
:10175000206B00F04BFA2046BDE8104000F046BA7E
:1017600010BD000010484FF44061420706D0C01D74
:101770000D4920F00700411AC1F540610B4A0023D2
:101780000144C2E900030839103A21F00701116051
:101790004B600B600B1AC0E9001393604FF00040E0
:1017A0005360D060704700004C0400206C000020A3
:1017B000144E154CA6F1C8074FF08058DFF84C9036
:1017C00012E000BF00F0DEF9F068C568281D00F0E7
:1017D00089F92069401E2061E068401EE06000F049
:1017E000F1F92846FFF7A3FFE0680028EAD138683E
:1017F0000128F9D9C9F80080BFF34F8FBFF36F8F6D
:10180000F2E70000240400202000002004ED00E0A6
:101810000346009829B10260C0E90F31012100F0B0
:1018200007BC0060F8E72DE9F0479A46DDE9098436
:1018300081466FF00303206B03EB82021044089D86
:1018400020F00706700707D0502080F31188BFF3FF
:101850004F8FBFF36F8FFEE723180A5C83F83420A5
:101860000A5C12B1401C1028F6D3002784F843709C
:10187000072D00D30625E562C4E91157201D00F0AD
:101880005AF904F1180000F056F92461C5F1070077
:101890006462A061E76484F850705246494630465D
:1018A00000F00EF92060B8F1000F01D0C8F8004038
:1018B000BDE8F08730B5114900E011460A68824260
:1018C000FBD34B685C18844203D1406818444860DD
:1018D000084643681C18944209D1084C103C2468FF
:1018E000A24209D052681A4442600A681268026033
:1018F000814200D0086030BD0460F9E76C00002030
:1019000010B5044600F03EF9A06B28B15FF000046A
:1019100000F058F9204610BD0124F9E70648416857
:10192000096829B14168C968C96849680163704795
:101930004FF0FF31FAE7000020000020084840681F
:10194000401C4FF0500080F3118804D0BFF34F8F3C
:10195000BFF36F8FFEE7BFF34F8FBFF36F8FFEE7CD
:10196000740000202DE9F041044600F00BF994F9D1
:10197000455004F1240609E0606A48B1304600F0A1
:101980003DFF08B100F0CAF96D1E6DB2002DF3DC09
:101990004FF0FF3684F8456000F014F900F0F2F8DB
:1019A00094F9445004F1100709E0206948B1384621
:1019B00000F024FF08B100F0B1F96D1E6DB2002DEA
:1019C000F3DC84F84460BDE8F04100F0FBB80000AF
:1019D0002DE9F0410546002700F048FA314E306805
:1019E00008B9FFF7BFFEF06805424BD1C5B3083513
:1019F00068070ED005F00700C0F10800054468072D
:101A000007D0502080F31188BFF34F8FBFF36F8F43
:101A1000FEE72DB37068854234D822481030014665
:101A20000C6801E020460C466168A94202D2216898
:101A30000029F7D131688C4224D007682168016001
:101A400060680837411B10290FD96019420708D078
:101A5000502080F31188BFF34F8FBFF36F8FFEE7E5
:101A600010E041606560FFF725FF61687068401A0B
:101A70007060B268904200D2B060F068014300200C
:101A8000C4E9000100F0F4FE780707D0502080F38D
:101A90001188BFF34F8FBFF36F8FFEE73846BDE865
:101AA000F08100005C0000200449086818B1086853
:101AB000826C521C8264086870470000200000207D
:101AC00010B5031F4FF080741C601B1F21F0010133
:101AD0001960191F024B0B60143940380A6010BDA1
:101AE0003D190008D0E9013201699A60D0E901236B
:101AF0005A604A68824201D182684A6000220261CB
:101B00000868401E0860086870470000034B0360C7
:101B100003F154000860802010607047C00000206E
:101B200000F108014FF0FF32C0E90112C16001610C
:101B300000210160704700210161704730B50B68DA
:101B40005A1C02D000F1080202E0026904E02246B9
:101B5000546825689D42FAD953684B6099608A6041
:101B6000516008610168491C016030BD42684A60EB
:101B700093688B6093685960916008610168491CA3
:101B800001607047502080F31188BFF34F8FBFF37F
:101B90006F8F0A494868401C486001280CD10848EA
:101BA000006810F0FF0F07D0502080F31188BFF3BA
:101BB0004F8FBFF36F8FFEE7704700007400002067
:101BC00004ED00E00849486828B1401E486001D192
:101BD00080F311887047502080F31188BFF34F8F36
:101BE000BFF36F8FFEE700007400002070B500287F
:101BF00027D0144DA0F108046168E868014207D1BC
:101C0000502080F31188BFF34F8FBFF36F8FFEE733
:101C100022683AB1502080F31188BFF34F8FBFF391
:101C20006F8FFEE78143616000F020F960686968AA
:101C3000084468602046FFF73DFEBDE8704000F0B4
:101C400017BE70BD5C0000204FF0E0200021016154
:101C5000816105494FF47A720968B1FBF2F1491EBE
:101C600041610721016170471C00002010B5FEF79B
:101C70008FFA114910280ED300F1E02090F8F003FC
:101C80000A78904207D2502080F31188BFF34F8F1B
:101C9000BFF36F8FFEE709480068896800F4E060D1
:101CA000884207D9502080F31188BFF34F8FBFF3CC
:101CB0006F8FFEE710BD0000740000200CED00E007
:101CC00010B5020014D00F48806B38B1502080F35B
:101CD0001188BFF34F8FBFF36F8FFEE700F0C6F898
:101CE00000211046FFF73AFC00F0C2FD002807D1A2
:101CF00005494FF080500860BFF34F8FBFF36F8FDF
:101D000010BD00002000002004ED00E002498A6AB6
:101D100002604969416070472000002001490120AC
:101D2000486270472000002010B50C4650B10949A8
:101D300009681831FFF702FF2046BDE81040012175
:101D4000FFF70CBC502080F31188BFF34F8FBFF317
:101D50006F8FFEE72000002070B504004BD0A26C0E
:101D6000A2B1606C884200D30146E06A884242D04A
:101D7000012A40D1204D2A6894420FD1502080F38F
:101D80001188BFF34F8FBFF36F8FFEE7502080F3B2
:101D90001188BFF34F8FBFF36F8FFEE7E162A26937
:101DA000002A02DBC1F10701A161144E00EB8000A3
:101DB000616906EB800081421DD1201DFFF792FE74
:101DC000012150B9E06A00EB800256F8222022B9C6
:101DD000AA6901FA00F08243AA61E06AAA69814017
:101DE0001143A96100EB800006EB8000211DBDE8D6
:101DF0007040FFF7BBBE70BD200000205C030020D8
:101E000010B586B00024039405AA04A903A804947D
:101E1000FFF77CFEDDE903010094CDE9011000230A
:101E20000EA11048059A00F0B6FB0F490028486340
:101E300011D0502080F31188BFF34F8FBFF36F8F05
:101E40004FF0FF3008630120C8614C6106B0BDE867
:101E5000104000F041B806B010BD000049444C45A8
:101E600000000000B1170008200000200248816B2C
:101E7000491C816370470000200000201448816BDA
:101E800011B1012141627047002141628169B1FABB
:101E900081F1C1F11F0101EB81020E4951F822309D
:101EA0006BB101EB820101F108034A6852684A6094
:101EB0009A4201D152684A60D1680160704750204F
:101EC00080F31188BFF34F8FBFF36F8FFEE70000E1
:101ED000200000205C0300201CB5264908780190F2
:101EE000FF20087008788DF800009DF800009DF82C
:101EF000002000F0F000904207D0502080F31188BD
:101F0000BFF34F8FBFF36F8FFEE79DF800001A4BB2
:101F100000F0500018700720986005E09DF8002040
:101F200052008DF80020401E9DF800201206F5D4C6
:101F30009860032807D0502080F31188BFF34F8F9B
:101F4000BFF36F8FFEE74FF4407098600198087000
:101F50000A48016841F470010160016841F0704174
:101F60000160FFF771FE00205860FEF7DBF80020EB
:101F70001CBD000000E400E07400002020ED00E043
:101F8000F8B517460E46050014D0DEB105FB06F085
:101F90004830FFF71DFD04000AD0002084F84600F9
:101FA00004F148023B46314628460094FFF730FCD6
:101FB0002046F8BD502080F31188BFF34F8FBFF348
:101FC0006F8FFEE70020E3E738B5049D18B153B1E9
:101FD000CAB181B120E0502080F31188BFF34F8F48
:101FE000BFF36F8FFEE7502080F31188BFF34F8F50
:101FF000BFF36F8FFEE7502080F31188BFF34F8F40
:10200000BFF36F8FFEE739B1502080F31188BFF323
:102010004F8FBFF36F8FFEE748241C46012384F8DF
:1020200046302B460094FFF7F3FB204638BD0000F6
:1020300070B50D46040025D0FFF7A4FDD4E90F20AC
:10204000216802FB001161600021A1632168A16089
:102050000A46D4E90F01401E00FB0121E160214640
:102060004FF0FF3001F8440F487004F110008DB1BB
:10207000FFF756FD04F12400FFF752FDFFF7A2FD24
:10208000012070BD502080F31188BFF34F8FBFF344
:102090006F8FFEE721690029F0D000F0AFFB002828
:1020A000ECD004494FF080500860BFF34F8FBFF36E
:1020B0006F8FE3E704ED00E02DE9FF4782B01D4696
:1020C0008A464FF00008040003D0BAF1000F08D090
:1020D00011E0502080F31188BFF34F8FBFF36F8F53
:1020E000FEE7206C38B1502080F31188BFF34F8F8A
:1020F000BFF36F8FFEE7022D0AD1E06B012807D0F6
:10210000502080F31188BFF34F8FBFF36F8FFEE72E
:1021100000F06CFA3F4F4FF000094FF0805648B97D
:10212000049838B1502080F31188BFF34F8FBFF36C
:102130006F8FFEE7FFF726FDA06BE16B884207D3A8
:10214000022D05D00498D0B1B8F1000F1AD01EE0CE
:102150002A4651462046FFF7B4FA616A19B104F1E4
:10216000240000F04BFB20B13E60BFF34F8FBFF364
:102170006F8FFFF727FD012006B0BDE8F087FFF75E
:1021800021FD22E06846FFF7C1FD4FF00108FFF78F
:1021900019FDFFF76BFEFFF7F5FC94F94400401CB6
:1021A00001D184F8449094F94500401C01D184F891
:1021B0004590FFF707FD04A9684600F085F930B1A6
:1021C0002046FFF7CFFB00F053FB0020D4E7FFF7DA
:1021D000D9FCA06BE16B884213D1FFF7F3FC04F14B
:1021E00010000499FFF7A0FD2046FFF7BBFB00F0AD
:1021F0003FFB00289ED13E60BFF34F8FBFF36F8F30
:1022000098E7FFF7DFFC2046FFF7ACFB00F030FB60
:1022100090E7000004ED00E070B50E46040009D020
:10222000206C78B1502080F31188BFF34F8FBFF33B
:102230006F8FFEE7502080F31188BFF34F8FBFF3FD
:102240006F8FFEE7206848B9606838B1502080F38E
:102250001188BFF34F8FBFF36F8FFEE7FFF706FDC7
:102260005020EFF3118580F31188BFF34F8FBFF338
:102270006F8FA16BE06B884218D994F94500491C17
:10228000A163411C04D0401C84F8450001200EE0ED
:10229000606A0028FAD004F1240000F0AFFA0028A8
:1022A000F4D0002EF2D001203060EFE7002085F35B
:1022B000118870BD2DE9F04790468946040003D08F
:1022C000B9F1000F08D011E0502080F31188BFF35E
:1022D0004F8FBFF36F8FFEE7206C38B1502080F333
:1022E0001188BFF34F8FBFF36F8FFEE7FFF7BEFC80
:1022F0005020EFF3118680F31188BFF34F8FBFF3A7
:102300006F8FA76BF7B194F9445049462046FFF709
:10231000C5F97F1EA763681C04D06D1C84F8445067
:10232000012010E020690028FAD004F1100000F02C
:1023300065FA0028F4D0B8F1000FF1D00121C8F8F7
:102340000010EDE7002086F31188BDE8F08700005B
:102350002DE9F343002683B00400354609D0206CF4
:1023600078B1502080F31188BFF34F8FBFF36F8F88
:10237000FEE7502080F31188BFF34F8FBFF36F8FBC
:10238000FEE700F033F9DFF83C814FF000094FF031
:10239000805748B9049838B1502080F31188BFF3B2
:1023A0004F8FBFF36F8FFEE7FFF7ECFBA06BC8B159
:1023B000401EA063206810B9FFF776FB60602069BB
:1023C00050B104F1100000F019FA28B1C8F80070FB
:1023D000BFF34F8FBFF36F8FFFF7F4FB012005B002
:1023E000BDE8F083049808B166B10FE03DB150201C
:1023F00080F31188BFF34F8FBFF36F8FFEE7FFF7B6
:10240000E1FB5DE06846FFF781FC0126FFF7DAFBA0
:10241000FFF72CFDFFF7B6FB94F94400401C01D1F7
:1024200084F8449094F94500401C01D184F845900B
:10243000FFF7C8FB04A9684600F046F800282046CC
:1024400012D0FFF78FFA00F013FA2046FFF758FA80
:102450000028A9D09DB3FFF795FB606A50B3206BAD
:102460000068C0F1070126E0FFF74AFAE0B12068F2
:1024700038B9FFF787FB606800F076F90546FFF78B
:10248000A1FB04F124000499FFF74EFC2046FFF75E
:1024900069FA00F0EDF9002886D1C8F80070BFF3A2
:1024A0004F8FBFF36F8F7FE72046FFF75BFA00F097
:1024B000DFF979E700216068FFF74EFC9FE7FFE74F
:1024C00000208CE704ED00E02DE9F0410C4605000A
:1024D00011D0C4B1FFF756FB174B5A696E682068DC
:1024E000911B471C17D02F689B6A9F4219D09642B8
:1024F00017D8012410E0502080F31188BFF34F8FCC
:10250000BFF36F8FFEE7502080F31188BFF34F8F2A
:10251000BFF36F8FFEE70024FFF754FB2046BDE8B2
:10252000F081884205D9401A20602846FFF7EEFB6B
:10253000F1E700202060DCE7200000202DE9FF5FAC
:102540008346DDE90E87994616468A469000FFF7D6
:102550003FFA05001CD05420FFF73AFA040014D0CB
:102560000020256384F85100CDE90240CDE90087C1
:102570004B46324651465846FFF755F92046FFF77D
:1025800025F8012004B0BDE8F09F2846FFF72EFB98
:102590004FF0FF30F6E7F0B585B0DDE90B640A9D3A
:1025A000A6B1DCB1542700972663022684F8516057
:1025B000002604AFCDE90246CDE90057FFF733F915
:1025C0002046FFF703F8049805B0F0BD502080F3D3
:1025D0001188BFF34F8FBFF36F8FFEE7502080F35A
:1025E0001188BFF34F8FBFF36F8FFEE70548C169B6
:1025F00019B1806B18B1002070470120704702208C
:1026000070470000200000202DE9F0412E4C0027EB
:10261000A06B40B1206A401C2062606A00B10127B3
:102620003846BDE8F0816669761C666113D1606842
:10263000006838B1502080F31188BFF34F8FBFF38B
:102640006F8FFEE76068A1686160A060A06A401CAF
:10265000A062FFF763F9206BDFF87080864209D330
:102660006068006880B16068C068C5686868864254
:102670000DD220632068C06A00EB800158F8210069
:102680000128CAD90127C8E74FF0FF30F1E7281D1C
:10269000FFF728FAA86A18B105F11800FFF722FA27
:1026A000E86A0121A26981401143A16100EB800128
:1026B00008EB8100291DFFF759FAE86A2168C96A09
:1026C0008842CDD30127CBE7200000205C03002007
:1026D00070B504004FF0000140D0214D28688442BD
:1026E00007D0502080F31188BFF34F8FBFF36F8F57
:1026F000FEE7A06C38B1401EA064636CE26A9A42A7
:102700002CD040B12AE0502080F31188BFF34F8FC6
:10271000BFF36F8FFEE7201DFFF7E4F9114A012197
:1027200050B9E06A00EB800352F8233023B9AB695B
:1027300001FA00F08343AB61606CE062C0F1070016
:10274000A061E06AAB6981401943A96100EB800098
:1027500002EB8000211DFFF709FA0121084670BD38
:10276000200000205C03002070B504004FF0000042
:1027700038D0204DE16A2A68D26A914233D2A069EA
:10278000002804DB2868C06AC0F10700A0611A4E67
:1027900001EB8101606906EB810188421ED1201D99
:1027A000FFF7A0F9012150B9E06A00EB800256F86A
:1027B000222022B9AA6901FA00F08243AA6128689E
:1027C000C06AE062AA6981401143A96100EB800000
:1027D00006EB8000211DFFF7C9F902E02868C06AF6
:1027E000E062012070BD616C2A68D26A9142F8D320
:1027F00070BD0000200000205C0300202DE9F041A6
:10280000C068C468ACB104F118000746FFF76AF964
:10281000154DA86B0126A0B139461448FFF7A6F95B
:10282000E06A2968C96A88421CD901206E62BDE845
:10283000F081502080F31188BFF34F8FBFF36F8F6B
:10284000FEE7201DFFF74EF9E16AAA6906FA01F0DA
:102850001043A86101EB81000449B43901EB800009
:10286000211DDBE70020E2E720000020100400200B
:102870002DE9F0472C4D00242746A86B38B1FFF70F
:1028800081F9A86B401EA863A86B40B146E05020B8
:1028900080F31188BFF34F8FBFF36F8FFEE7296975
:1028A000224E0120D1B3A6F1B40980463068E8B1C8
:1028B000F068C46804F11800FFF714F9201DFFF751
:1028C00011F9E06AAA6908FA00F11143A96100EB65
:1028D000800109EB8100211DFFF748F9E06A2968B2
:1028E000C96A8842E2D3C5F82480DFE70CB1FFF75C
:1028F00015F82C6A44B14646FFF786FE00B16E62B9
:10290000641EF9D100202862686A38B1084901279D
:1029100038070860BFF34F8FBFF36F8FFFF752F98F
:102920003846BDE8F0870000200000201004002099
:1029300004ED00E0A0290008950E0008FFFF00004C
:102940000000000080000000000000000000000007
:10295000A8290008890F00080000000000000000FE
:10296000800000000000000000000000B029000806
:10297000E90F0008010000000000000080000000D6
:102980000000000000000000000000000000000047
:102990000102030406070809000000000102030405
:1029A0005461736B310000005461736B320000009E
:1029B0005461736B33000000D82900080000002028
:1029C00080000000F6120008582A0008800000204D
:1029D000D0130000061300080000000000000000F3
:1029E00000000000000000000100000010000000D6
:1029F000000000000024F4000000000000000000BF
:102A000000000000000000000000000000000000C6
:102A100000000000000000000000000000000000B6
:102A200000000000000000000000000000000000A6
:102A30000000000000000000000000000000000096
:102A40000000000000000000000000000000000086
:082A5000AAAAAAAA00000000D6
:04000005080000ED02
:00000001FF
