:020000040800F2
:100000005014002099010008B30E0008AF0E00083C
:10001000B10E000865020008891100080000000008
:1000200000000000000000000000000001010008C6
:10003000670200080000000045010008790F000871
:10004000B3010008B3010008B3010008B3010008C0
:10005000B3010008B3010008B3010008B3010008B0
:10006000B3010008B3010008B3010008B3010008A0
:10007000B3010008B3010008B3010008B301000890
:10008000B3010008B3010008B3010008B301000880
:10009000B3010008B3010008B3010008B301000870
:1000A000B3010008F50F0008B3010008B301000810
:1000B000B3010008B3010008B3010008B301000850
:1000C000B3010008B3010008B3010008B301000840
:1000D000B3010008B3010008B3010008B301000830
:1000E000B3010008B3010008B3010008DFF80CD029
:1000F00000F0A6F8004800476113000850140020E3
:10010000224B19680868B0E8F00F80F30988BFF344
:100110006F8F4FF0000080F311884EF00D0E704786
:100120000000000006480068006880F3088862B696
:1001300061B6BFF34F8FBFF36F8F00DF00BF00BF0B
:1001400008ED00E0EFF30980BFF36F8F0F4B1A68E3
:1001500020E9F00F106008B54FF0500080F31188CF
:10016000BFF34F8FBFF36F8F01F0AAFD4FF0000078
:1001700080F31188BDE8084019680868B0E8F00FFE
:1001800080F30988BFF36F8F704700BF2400002001
:10019000EFF3058070470000064880470648004797
:1001A000FEE7FEE7FEE7FEE7FEE7FEE7FEE7FEE727
:1001B000FEE7FEE7F30F0008ED00000840EA010348
:1001C0009B0703D009E008C9121F08C0042AFAD20D
:1001D00003E011F8013B00F8013B521EF9D27047D1
:1001E000D2B201E000F8012B491EFBD27047002279
:1001F000F6E710B513460A4604461946FFF7F0FF26
:10020000204610BD421C10F8011B0029FBD1801AAA
:10021000704730B50B46014600202022012409E03A
:1002200021FA02F59D4205D303FA02F5491B04FAAF
:1002300002F52844151EA2F10102F1DC30BD0000D8
:10024000064C074D06E0E06840F0010394E8070023
:1002500098471034AC42F6D3FFF74CFF90200008CB
:10026000B0200008FEE770472DE9F84FDFF8B8919D
:10027000002409F1040A0AF1040B23460F270BF1AD
:10028000040EC9E00125A5402A40AA427DD1674E4F
:10029000D1F804C0ACEB0608B44532D014DCBCF194
:1002A000030F3AD009DCBCF1000F2AD0BCF1010FDA
:1002B0001CD0BCF1020F31D11DE0BCF1110F17D0E1
:1002C000BCF1120F2AD119E0B8F5881F19D006DC4D
:1002D000B8F5803F15D0B8F5801F1FD111E0B8F5F3
:1002E000001F0ED0B8F5041F18D10AE0CB6815E046
:1002F000CB681B1D12E0CB6808330FE0CB680C33D2
:100300000CE08B682BB1012B4FF0080303D0456143
:1003100004E0042302E0056100E00023FF2A01D885
:10032000064601E000F104064FEA840501D9A5F173
:100330002005D6F8008007FA05FC28EA0C0803FA25
:1003400005F548EA0508C6F800804D68ED0062D55D
:10035000374DAE6946F00106AE61AD6924F0030683
:1003600005F001050095334D06EB050CDCF808504F
:10037000A607360F07FA06F825EA0805DFF8B88061
:10038000404503D14FF0000817E044E0DFF8AC80AF
:10039000404502D14FF001080FE0DFF8A48040454E
:1003A00002D14FF0020808E0DFF89880404502D102
:1003B0004FF0030801E04FF0040808FA06F848EA95
:1003C0000508CCF808804D68D9F80060ED034D466B
:1003D00001D5164300E096432E604D68DAF80060C0
:1003E000AD03554601D5164300E096432E604D6897
:1003F000DBF80060ED025D4601D5164300E0964350
:100400002E604D68DEF80060AD02754601D51643DA
:1004100000E096432E60641C0D682A46E5407FF498
:1004200031AFBDE8F88F000000040140000011105A
:10043000001002400000014000080140000C014093
:10044000001001400014014001488068704700001E
:1004500014000020024881680278114481607047CE
:1004600014000020074810B5016841F01001016038
:10047000032000F08FF8002000F006F800F03EF8AE
:10048000002010BD0020024000B5014687B00022C8
:10049000192000F05FF8192000F04EF81348816928
:1004A00041F400618161806905A900F40060069053
:1004B000684600F017F900F045F90D490D4AB0FB08
:1004C000F1F10D48491E0260416040F2E73200211F
:1004D000C0E90321816000F00DFB10B1012007B0DD
:1004E00000BD054800F034FBF9E7000000100240B1
:1004F00040420F00002C0140180300200C4808B5B2
:10050000816941F001018161816901F0010100917E
:10051000C16941F08051C161C06900F08050009014
:100520000448416821F0E06141F00071416008BD7C
:100530000010024000000140002809DB00F01F020B
:10054000012191404009800000F1E020C0F8001135
:1005500070470000F0B40E4B1B680C46C3F3022337
:10056000C3F10705042D00D90425191D072901D25F
:10057000002300E0DB1E012606FA05F1491E21409A
:1005800099409E40761E16403143F0BC00F012BEEA
:100590000CED00E0064900F0070208684FF6FF0383
:1005A000184040EA0220034A1043086070470000E8
:1005B0000CED00E00000FA052DE9F0470F460500BC
:1005C00061D0434E306800F00700B84209D230686D
:1005D00020F0070038433060306800F00700B84270
:1005E00051D128683B4C810712D5400703D560687C
:1005F00040F4E06060602878000703D5606840F44C
:10060000605060606068A96820F0F0000843606096
:100610002878C00728D06868012810D021680228EF
:1006200010D0890700292EDA616821F00301014307
:100630006160FFF709FF804641F288390DE02168CB
:100640008903EFE78901EDE7FFF7FEFEA0EB080164
:10065000494502D90320BDE8F0876068696800F069
:100660000C00B0EB810FEFD1306800F00700B8420A
:100670000BD9306820F0070038433060306800F054
:100680000700B84201D00120E5E72878400705D5EA
:100690006068E96820F4E06008436060287800073B
:1006A00006D56068296920F4605040EAC1006060A6
:1006B00000F058F86168084AC1F30311515CC84062
:1006C0000649086006480068FFF7DEFE0020C2E722
:1006D00000200240001002405420000820000020AA
:1006E000180000200F2202600C4A536803F0030335
:1006F0004360536803F0F0038360536803F4E063DE
:10070000C36052684FF4E06303EAD2020261044816
:10071000006800F007000860704700000010024009
:10072000002002400448054900684968044AC1F3B2
:100730000221515CC8407047200000200010024098
:10074000642000080448054900684968044AC1F368
:10075000C221515CC84070472000002000100240B8
:100760006420000812A185B00FC98DE80F0014A005
:10077000144A006804905168134801F00C03042BDC
:1007800010D0082B0ED1C1F38343C9031DF8030019
:100790000AD5516804AAC1F34041515C0A4A50434A
:1007A000B0FBF1F005B0704708494843FAE7000094
:1007B00002030405060708090A0B0C0D0E0F1010A2
:1007C000010200000010024000127A0000093D0002
:1007D0002DE9F84F040070D02078C04DC00749D0F3
:1007E0006868C0F38100012807D06868C0F3810001
:1007F000022809D16868C00306D52868800339D566
:1008000060680028E7D035E06068B0F5803F0BD025
:1008100010B1B0F5A02F11D0286820F480302860E6
:10082000286820F4802002E0286840F480302860A6
:10083000606890B1FFF708FE06460AE0286840F4B9
:1008400080202860F0E700BFFFF7FEFD801B6428D2
:1008500073D828688003F7D50CE0FFF7F5FD06464E
:1008600005E000BFFFF7F0FD801B6428F0D8286882
:100870008003F7D420789A4E80074FF001094FF09B
:10088000000839D5686810F00C0F07D06868C0F30D
:100890008100022809D16868C00306D4286880074F
:1008A00014D52069012808D110E02069B0B1C6F83C
:1008B0000090FFF7C9FD074605E00AE1FFF7C4FD18
:1008C000C01B0228C4D828688007F7D5286861694A
:1008D00020F0F80040EAC10028600DE0C6F8008072
:1008E000FFF7B2FD074604E0FFF7AEFDC01B02288C
:1008F00023D828688007F7D4207800072CD57948BA
:10090000A169D9B1C0F80090FFF79EFD074604E049
:10091000FFF79AFDC01B02280FD8686A8007F7D539
:1009200071484FF4FA510068B0FBF1F0009000BF3D
:100930000098411E0091FAD20EE080E0C0F80080DD
:10094000FFF782FD074604E0FFF77EFDC01B02288B
:1009500075D8686A8007F7D42078400760D5E869C1
:100960000027C00008D4E86940F08050E861E869D9
:10097000012700F0805000905C480168C90513D43D
:100980000168834641F480710160FFF75DFD824696
:1009900006E000BFFFF758FDA0EB0A0064284ED820
:1009A000DBF80000C005F5D5E06801280AD008B1E1
:1009B000052813D0286A20F001002862286A20F058
:1009C000040002E0286A40F001002862E06841F279
:1009D000883B98B1FFF738FD82460BE0286A40F06B
:1009E00004002862EEE700BFFFF72EFDA0EB0A012E
:1009F00059455AD8286A8007F6D50CE0FFF724FD40
:100A0000824605E0FFF720FDA0EB0A0159454CD8CE
:100A1000286A8007F6D41FB1E86920F08050E861A9
:100A2000E06988B36968C1F38101022944D00228D2
:100A3000C6F8608004D0FFF707FD044638E034E0D4
:100A4000FFF702FD074604E0FFF7FEFCC01B02288B
:100A50002BD828688001F7D4206AB0F5803F05D1F3
:100A60006868A16820F4003008436860D4E9080190
:100A70000843696821F4741108436860C6F86090FF
:100A8000FFF7E2FC044606E025E000BFFFF7DCFCD0
:100A9000001B022809D828688001F7D51BE000BF99
:100AA000FFF7D2FC001B022802D90320BDE8F88F13
:100AB00028688001F4D40EE00128F7D06868226A23
:100AC00000F48031914204D1616A00F470108842D0
:100AD00001D00120EAE70020E8E700000010024012
:100AE000000042428004424220000020007000408A
:100AF0007047704710B5040003D094F83D0010B162
:100B000007E0012010BD002084F83C00204600F0E2
:100B10001EF8022084F83D00211D206800F070FAC4
:100B2000012084F8460084F83E0084F83F0084F8F1
:100B3000400084F8410084F8420084F8430084F8BF
:100B4000440084F8450084F83D00002010BD704743
:100B500090F83D10012901D001207047022180F852
:100B60003D100168CA6842F00102CA6000680B4982
:100B7000884208D0B0F1804F05D00949884202D0A0
:100B80000849884204D1816801F00701062903D091
:100B9000016841F00101016000207047002C014014
:100BA0000004004000080040704770B5044600682B
:100BB00001694FF00005C943890715D4C168C943CD
:100BC000890711D4E91E016101202077206880691E
:100BD0008007204602D0FFF7E7FF04E000F098F816
:100BE000204600F096F8257720680169C943490737
:100BF00017D4C168C943490713D46FF004010161D8
:100C0000022020772068806910F4407F204602D0BF
:100C1000FFF7CAFF04E000F07BF8204600F079F807
:100C2000257720680169C943090716D4C168C943FB
:100C3000090712D46FF008010161042020772068B1
:100C4000C0698007204602D0FFF7AEFF04E000F045
:100C50005FF8204600F05DF8257720680169C943F8
:100C6000C90617D4C168C943C90613D46FF010016F
:100C70000161082020772068C06910F4407F204679
:100C800002D0FFF791FF04E000F042F8204600F0A8
:100C900040F8257720680169C943C90708D1C168B0
:100CA000C943C90704D1891E0161204600F032F80A
:100CB00020680169C943090609D4C168C943090606
:100CC00005D46FF0800101612046FFF711FF206815
:100CD0000169C943490609D4C168C943490605D415
:100CE0006FF040010161204600F01EF820680169A4
:100CF000C94389060BD4C168C943890607D46FF07C
:100D0000200101612046BDE87040FFF7F2BE70BDD2
:100D10007047704700680349884201D1FFF79ABBCA
:100D200070470000002C0140704770B5040004D0EB
:100D300094F83900002510B106E0012070BD84F858
:100D40003850204600F022F8242084F8390020682A
:100D5000C16821F40051C160204600F087F9206885
:100D6000016921F4904101612068416921F02A0163
:100D700041612068C16841F40051C160E5632020F1
:100D800084F8390084F83A00002070BD30B585B091
:100D9000002400940194029403940068144988424A
:100DA00024D11448816941F480418161816901F451
:100DB00080410491816941F00401816180690E4D97
:100DC00000F0040004904FF40070009002200190A5
:100DD0000320039069462846FFF746FA2815CDE917
:100DE0000004694628460294FFF73EFA05B030BD7C
:100DF0000038014000100240000801402DE9F8438E
:100E0000044690F839001F4616460D4620284CD15E
:100E1000C5B1BEB194F83800012846D0012084F84D
:100E200038004FF00008C4F83C80212084F83900D5
:100E3000FFF70AFBA6848146E684A068B0F5805FD0
:100E400003D004E00120BDE8F883206928B12E46D4
:100E50005FF0000584F838800EE00026FAE7802174
:100E6000204600F05FF9A0B9AEB116F8010B216879
:100E70004860E08C401EE084E08C4B464FF000025E
:100E800000970028EBD14FF04001204600F04AF9CE
:100E900030B10320D7E735F8020BC0F30800E6E7CE
:100EA000202084F839000020CDE70220CBE7FEE7C0
:100EB000FEE770474FF4FA7507A46E002046FFF76F
:100EC000A1F982B22B4621460948FFF797FF304629
:100ED00000F0F4FAF2E700005461736B20312069EE
:100EE000732072756E6E696E672E0D0A0000000029
:100EF0008400002008B500204FF4FA750746EE0084
:100F00004FF4FA680090242000F0C4FC04463A46EE
:100F1000781CC7B20EA1204600F038F92046FFF732
:100F200071F982B22B4621461248FFF767FF20462F
:100F300000F0B2FD032F06D100F0D3FA0090314645
:100F4000684600F0C2FA404600F0B8FADBE700005D
:100F50005461736B20322069732072756E6E696EF6
:100F6000672C20496E646578203D2025642E0D0A8B
:100F7000000000008400002010B5502080F311888C
:100F8000BFF34F8FBFF36F8F00F082FF18B104499A
:100F90004FF080500860002080F3118810BD0000E1
:100FA00004ED00E030B58FB028216846FFF71FF947
:100FB00014210AA8FFF71BF901210804CDE900104C
:100FC0000024029402250491CDE907504FF4E0106B
:100FD00009906846FFF7FCFB0F20CDE90A0568027F
:100FE000CDE90C4002210AA80E94FFF7E5FA0FB0F4
:100FF00030BD70470148FFF7D8BD0000180300203E
:10100000F0B50268164B174C174D4FF080479842C9
:1010100005D0B84203D0A04201D0A84203D122F0AB
:1010200070064A683243984205D0B84203D0A042C5
:1010300001D0A84203D122F44074CA6822434C690B
:1010400022F08002224302608A68C2620A688262D9
:10105000984201D10969016301214161F0BD00009D
:10106000002C0140000400400008004070B5044618
:1010700000680169E26821F440511143016121696E
:10108000A0680843616908432168CA6841F20C639B
:101090009A430243CA6020684169A26921F4407101
:1010A000114341611E492068884202D1FFF74AFB83
:1010B00001E0FFF737FB00EBC00101EB00126068B5
:1010C00064218000B2FBF0F3B3FBF1F36FF018067C
:1010D0007343B2FBF0F5B2FBF0F605EB8305322368
:1010E00003EB0515B5FBF1F5B6FBF1F605F0F005E0
:1010F00005EB0615B2FBF0F6B2FBF0F0B0FBF1F039
:101100006FF01802504306EB800003EB0010B0FBB9
:10111000F1F0216800F00F002844886070BD0000E5
:10112000003801402DE9F041984617460E46044626
:10113000069D1DE0681C1BD02DB1FFF785F9A0EBC3
:101140000800A84214D92068C16821F4D071C16098
:101150002068416921F001014161202084F83900B3
:1011600084F83A00002084F838000320BDE8F081BC
:101170002068006836EA000004D00020B842D9D0C8
:101180000020F3E70120F9E7FEE700000FB4084B69
:1011900010B504A902AA039800F02CF8044602A98D
:1011A000002000F0D1F8204610BC5DF814FB0000D0
:1011B000491300080907090E002804DB00F1E020AC
:1011C00080F80014704700F00F0000F1E02080F874
:1011D000141D704702E008C8121F08C1002AFAD186
:1011E00070477047002001E001C1121F002AFBD1A7
:1011F000704700002DE9FF4F89B09B46044600254B
:1012000006E025280BD05A460B999047641C6D1CAC
:1012100020780028F5D10DB02846BDE8F08F0027D2
:10122000B8460122474900E0074314F8013F203B3C
:1012300002FA03F00842F7D120782E2819D114F8C9
:10124000010F47F004072A280ED06FF02F022078F4
:10125000A0F1300109290CD808EB880102EB41010B
:1012600000EB0108641CF2E70A98641C50F8048B38
:101270000A9020780028CED0642808D0692806D0AB
:1012800075281ED05A460B9990476D1C58E00A9954
:101290004FF00A0901C90A91002802DA40422D21C3
:1012A00002E0390504D52B218DF82010012103E03F
:1012B000F90704D02021F7E78A4608AE0DE00021A7
:1012C000FAE70A994FF00A0901C90A91F7E7494676
:1012D000FEF79FFF303106F8011D0028F7D1ADEB76
:1012E000060000F12009780701D44FF00108C84535
:1012F00002DDA8EB090000E000208046002706E0A0
:1013000008A85A46C05D0B9990476D1C7F1C574535
:10131000F6DB04E030205A460B9990476D1CB8F17B
:101320000001A8F10108F5DC05E016F8010B5A46AA
:101330000B9990476D1CB9F10001A9F10109F4DC8A
:10134000641C65E7092801000A68531C0B601070D3
:101350007047EFF30580002800D00120704700009F
:1013600090B0FFF77FF8FFF71DFE3048816941F02C
:1013700020018161816901F020010E91816941F0B4
:101380000401816180692A4900F004000E90294817
:101390000C2201604FF41651416000218160C16050
:1013A000C0E904128161C161FFF7BFFC224C2068D3
:1013B000FEF728FF82B24FF4FA731E482168FFF748
:1013C0001DFD1C221D496846FEF7F8FE00216846F7
:1013D00000F093F86060002823D019A0E060FEF7C9
:1013E00011FF82B2C8231348E168FFF707FD1349D4
:1013F0001C221C3107A8FEF7E1FE002107A800F01F
:101400007CF8A06078B116A0E060FEF7FBFE82B227
:10141000C8230848E168FFF7F1FC00F05DF820619F
:10142000FEE717A0DAE71CA0EEE70000001002407C
:101430000038014084000020000000201C2000082B
:101440005461736B2031206372656174656420732D
:1014500075636365737366756C6C790D0A000000C3
:101460005461736B2032206372656174656420730C
:1014700075636365737366756C6C790D0A000000A3
:101480005461736B2031206469646E277420637229
:1014900065617465640D0A005461736B20322064C9
:1014A00069646E277420637265617465640D0A0057
:1014B00001460020842900D0C81C704710B500B92F
:1014C000012000F053FB002010BD10B501B901212F
:1014D00000F072FB002010BD10B500F0B3FB00203F
:1014E00010BD10B5FFF735FF18B1BDE8104000F092
:1014F000C7BCBDE8104000F0BDBC7FB50D4604463A
:101500004169B0F9080081B1A16971B1FFF7D0FF5D
:10151000D4E905128DE80700D4E900102B462269B2
:1015200000F07DFC039004B070BDFFF7C1FF03A97C
:10153000CDE90001208A2B4682B2D4E9001000F0E8
:1015400041FC012801D00020EDE70398EBE7000003
:101550002DE9F041184C0F46054666692068001DCC
:1015600000F016FA38B9206890F82C100120884055
:10157000A1698143A161681C07D137B12168BDE829
:10158000F0410E48091D00F047BA20683544B542C5
:101590004560216805D2A068BDE8F041091D00F052
:1015A00023BA6068091D00F01FFA206B854200D243
:1015B0002563BDE8F0810000240000203C040020E9
:1015C0002DE9F041054600F033FA2E4C2069401C0D
:1015D000206120682C4F10B1E06940B32DE02560F8
:1015E0002069012829D1002606EB860007EB800040
:1015F00000F0ECF9761C072EF6D323488C3000F06F
:10160000E5F92148A03000F0E1F91F48B43000F0BE
:10161000DDF91D48C83000F0D9F91B48DC3000F076
:10162000D5F919488C3060601430A06005E020685E
:10163000E96AC06A884200D82560E06A401CE0621E
:10164000E96A0120A26988401043A06101EB810092
:1016500007EB8000291D00F0DFF900F009FAE069CE
:1016600000280CD02068E96AC06A884207D207497E
:101670004FF080500860BFF34F8FBFF36F8FBDE80E
:10168000F0810000240000206003002004ED00E051
:1016900010B5044690F8510058B101280CD002282A
:1016A0000FD0502080F31188BFF34F8FBFF36F8F9F
:1016B000FEE7206B00F0F0F92046BDE8104000F096
:1016C000EBB910BD10484FF44061420706D0C01D71
:1016D0000D4920F00700411AC1F540610B4A002373
:1016E0000144C2E900030839103A21F007011160F2
:1016F0004B600B600B1AC0E9001393604FF0004081
:101700005360D0607047000050040020700000203B
:10171000144E154CA6F1C8074FF08058DFF84C90D6
:1017200012E000BF00F084F9F068C568281D00F0E1
:101730002FF92069401E2061E068401EE06000F043
:1017400097F92846FFF7A4FFE0680028EAD1386837
:101750000128F9D9C9F80080BFF34F8FBFF36F8F0D
:10176000F2E70000280400202400002004ED00E03F
:101770002DE9F0479A46DDE9098481466FF00303BD
:10178000206B03EB82021044089D20F007067007CF
:1017900007D0502080F31188BFF34F8FBFF36F8FB6
:1017A000FEE723180A5C83F834200A5C12B1401C5F
:1017B0001028F6D3002784F84370072D00D30625A0
:1017C000E562C4E91157201D00F00BF904F118007F
:1017D00000F007F92461C5F107006462A061E764C5
:1017E00084F8507052464946304600F0BFF82060F9
:1017F000B8F1000F01D0C8F80040BDE8F087000044
:1018000030B5114900E011460A688242FBD34B68AB
:101810005C18844203D14068184448600846436815
:101820001C18944209D1084C103C2468A24209D0EB
:1018300052681A4442600A6812680260814200D00D
:10184000086030BD0460F9E7700000200648416878
:10185000096829B14168C968C96849680163704766
:101860004FF0FF31FAE700002400002008484068EC
:10187000401C4FF0500080F3118804D0BFF34F8F0D
:10188000BFF36F8FFEE7BFF34F8FBFF36F8FFEE79E
:10189000780000202DE9F0410546002700F008FA05
:1018A000314E306808B9FFF70DFFF06805424BD1A3
:1018B000C5B3083568070ED005F00700C0F1080071
:1018C0000544680707D0502080F31188BFF34F8F7D
:1018D000BFF36F8FFEE72DB37068854234D822487E
:1018E000103001460C6801E020460C466168A942B0
:1018F00002D221680029F7D131688C4224D00768D0
:101900002168016060680837411B10290FD96019F0
:10191000420708D0502080F31188BFF34F8FBFF3E8
:101920006F8FFEE710E041606560FFF769FF616857
:101930007068401A7060B268904200D2B060F0687F
:1019400001430020C4E9000100F006FB780707D03E
:10195000502080F31188BFF34F8FBFF36F8FFEE7E6
:101960003846BDE8F08100006000002010B5031F7C
:101970004FF080741C601B1F21F001011960191FBA
:10198000024B0B60143940380A6010BD6D18000816
:10199000D0E9013201699A60D0E901235A604A68AE
:1019A000824201D182684A60002202610868401EBA
:1019B0000860086870470000034B036003F154009F
:1019C0000860802010607047C400002000F108010A
:1019D0004FF0FF32C0E90112C160016100210160D6
:1019E000704700210161704730B50B685A1C02D066
:1019F00000F1080202E0026904E02246546825680A
:101A00009D42FAD953684B6099608A6051600861C1
:101A10000168491C016030BD42684A6093688B6070
:101A200093685960916008610168491C01607047C2
:101A3000502080F31188BFF34F8FBFF36F8F0A4997
:101A40004868401C486001280CD10848006810F024
:101A5000FF0F07D0502080F31188BFF34F8FBFF3E3
:101A60006F8FFEE7704700007800002004ED00E073
:101A70000849486828B1401E486001D180F31188A8
:101A80007047502080F31188BFF34F8FBFF36F8FE3
:101A9000FEE700007800002070B5002827D0144D24
:101AA000A0F108046168E868014207D1502080F382
:101AB0001188BFF34F8FBFF36F8FFEE722683AB1F3
:101AC000502080F31188BFF34F8FBFF36F8FFEE775
:101AD0008143616000F0ECF8606869680844686000
:101AE0002046FFF78DFEBDE8704000F035BA70BDAE
:101AF000600000204FF0E020002101618161054974
:101B00004FF47A720968B1FBF2F1491E4161072175
:101B1000016170472000002010B5FEF739FB114924
:101B200010280ED300F1E02090F8F0030A789042DC
:101B300007D2502080F31188BFF34F8FBFF36F8F10
:101B4000FEE709480068896800F4E060884207D928
:101B5000502080F31188BFF34F8FBFF36F8FFEE7E4
:101B600010BD0000780000200CED00E010B5020070
:101B700014D00F48806B38B1502080F31188BFF328
:101B80004F8FBFF36F8FFEE700F092F800211046F1
:101B9000FFF7DEFC00F0E0F9002807D105494FF01F
:101BA00080500860BFF34F8FBFF36F8F10BD0000F0
:101BB0002400002004ED00E070B50D4604000BD0B9
:101BC00095B11E4A906BB8B1502080F31188BFF3D5
:101BD0004F8FBFF36F8FFEE7502080F31188BFF364
:101BE0004F8FBFF36F8FFEE7502080F31188BFF354
:101BF0004F8FBFF36F8FFEE700F05AF852692368EA
:101C00005919934204D98B420AD9914202D807E06C
:101C10008B42FAD9881A21600021FFF799FC00E075
:101C2000216000F099F9002807D105494FF0805054
:101C30000860BFF34F8FBFF36F8F70BD240000208B
:101C400004ED00E010B586B00024039405AA04A9B1
:101C500003A80494FFF7B0FEDDE903010094CDE989
:101C6000011000230EA11048059A00F0D8F80F4982
:101C70000028486311D0502080F31188BFF34F8FA4
:101C8000BFF36F8F4FF0FF3008630120C8614C61D4
:101C900006B0BDE8104000F041B806B010BD00002D
:101CA00049444C45000000001117000824000020A2
:101CB0000248816B491C81637047000024000020AA
:101CC0001448816B11B101214162704700214162CA
:101CD0008169B1FA81F1C1F11F0101EB81020E4965
:101CE00051F822306BB101EB820101F108034A681F
:101CF00052684A609A4201D152684A60D1680160D4
:101D00007047502080F31188BFF34F8FBFF36F8F60
:101D1000FEE7000024000020600300201CB52649D7
:101D200008780190FF20087008788DF800009DF871
:101D300000009DF8002000F0F000904207D05020F5
:101D400080F31188BFF34F8FBFF36F8FFEE79DF8CD
:101D500000001A4B00F0500018700720986005E052
:101D60009DF8002052008DF80020401E9DF80020B4
:101D70001206F5D49860032807D0502080F311880C
:101D8000BFF34F8FBFF36F8FFEE74FF44070986043
:101D9000019808700A48016841F470010160016807
:101DA00041F070410160FFF7A5FE00205860FEF78A
:101DB000B9F900201CBD000000E400E0780000201C
:101DC00020ED00E02DE9FF5F8346DDE90E879946AF
:101DD00016468A469000FFF75DFD05001CD0542092
:101DE000FFF758FD040014D00020256384F851004B
:101DF000CDE90240CDE900874B4632465146584670
:101E0000FFF7B6FC2046FFF7DBFB012004B0BDE87E
:101E1000F09F2846FFF740FE4FF0FF30F6E7F0B5A1
:101E200085B0DDE90B640A9DA6B1DCB154270097AB
:101E30002663022684F85160002604AFCDE90246ED
:101E4000CDE90057FFF794FC2046FFF7B9FB049853
:101E500005B0F0BD502080F31188BFF34F8FBFF362
:101E60006F8FFEE7502080F31188BFF34F8FBFF3D1
:101E70006F8FFEE701484069704700002400002092
:101E800010B5FFF749FE0148406910BD240000204D
:101E90002DE9F0412E4C0027A06B40B1206A401C78
:101EA0002062606A00B101273846BDE8F0816669AA
:101EB000761C666113D16068006838B1502080F3E9
:101EC0001188BFF34F8FBFF36F8FFEE76068A16883
:101ED0006160A060A06A401CA062FFF7B7FC206BA5
:101EE000DFF87080864209D36068006880B160685E
:101EF000C068C568686886420DD220632068C06AE1
:101F000000EB800158F821000128CAD90127C8E751
:101F10004FF0FF30F1E7281DFFF73AFDA86A18B12E
:101F200005F11800FFF734FDE86A0121A26981403C
:101F30001143A16100EB800108EB8100291DFFF72F
:101F40006BFDE86A2168C96A8842CDD30127CBE7D7
:101F500024000020600300202DE9F0472C4D0024D0
:101F60002746A86B38B1FFF763FDA86B401EA86336
:101F7000A86B40B146E0502080F31188BFF34F8F2B
:101F8000BFF36F8FFEE72969224E0120D1B3A6F17E
:101F9000B40980463068E8B1F068C46804F11800FC
:101FA000FFF7F6FC201DFFF7F3FCE06AAA6908FAC8
:101FB00000F11143A96100EB800109EB8100211DB3
:101FC000FFF72AFDE06A2968C96A8842E2D3C5F8AA
:101FD0002480DFE70CB1FFF739FC2C6A44B1464698
:101FE000FFF756FF00B16E62641EF9D1002028622F
:101FF000686A38B10849012738070860BFF34F8F76
:10200000BFF36F8FFFF734FD3846BDE8F08700005F
:10201000240000201404002004ED00E080200008CB
:10202000B50E000800000000000000008000000065
:10203000000000000000000088200008F50E0008E5
:10204000010000000000000080000000000000000F
:102050000000000000000000000000000102030476
:1020600006070809000000000102030453746172AE
:1020700074696E672E2E2E2E2E2E2E0D0A00000055
:102080005461736B310000005461736B32000000C7
:10209000B02000080000002084000000D4110008D7
:1020A0003421000884000020CC130000E411000853
:1020B0006C2000080000000000000000000000008C
:1020C00000000000010000001000000000000000FF
:1020D0000024F400000000000000000000000000E8
:1020E00000000000000000000000000000000000F0
:1020F00000000000000000000000000000000000E0
:1021000000000000000000000000000000000000CF
:1021100000000000000000000000000000000000BF
:10212000000000000000000000000000AAAAAAAA07
:0421300000000000AB
:04000005080000ED02
:00000001FF
